{
  "abi": [
    {
      "inputs": [
        {
          "internalType": "uint256",
          "name": "",
          "type": "uint256"
        }
      ],
      "name": "campaigns",
      "outputs": [
        {
          "internalType": "address",
          "name": "owner",
          "type": "address"
        },
        {
          "internalType": "string",
          "name": "title",
          "type": "string"
        },
        {
          "internalType": "string",
          "name": "description",
          "type": "string"
        },
        {
          "internalType": "uint256",
          "name": "target",
          "type": "uint256"
        },
        {
          "internalType": "uint256",
          "name": "deadline",
          "type": "uint256"
        },
        {
          "internalType": "uint256",
          "name": "amountCollected",
          "type": "uint256"
        },
        {
          "internalType": "string",
          "name": "image",
          "type": "string"
        }
      ],
      "stateMutability": "view",
      "type": "function"
    },
    {
      "inputs": [
        {
          "internalType": "address",
          "name": "_owner",
          "type": "address"
        },
        {
          "internalType": "string",
          "name": "_title",
          "type": "string"
        },
        {
          "internalType": "string",
          "name": "_description",
          "type": "string"
        },
        {
          "internalType": "uint256",
          "name": "_target",
          "type": "uint256"
        },
        {
          "internalType": "uint256",
          "name": "_deadline",
          "type": "uint256"
        },
        {
          "internalType": "string",
          "name": "_image",
          "type": "string"
        }
      ],
      "name": "createCampaign",
      "outputs": [
        {
          "internalType": "uint256",
          "name": "",
          "type": "uint256"
        }
      ],
      "stateMutability": "nonpayable",
      "type": "function"
    },
    {
      "inputs": [
        {
          "internalType": "uint256",
          "name": "_id",
          "type": "uint256"
        }
      ],
      "name": "donateCampaign",
      "outputs": [],
      "stateMutability": "payable",
      "type": "function"
    },
    {
      "inputs": [],
      "name": "getCampaigns",
      "outputs": [
        {
          "components": [
            {
              "internalType": "address",
              "name": "owner",
              "type": "address"
            },
            {
              "internalType": "string",
              "name": "title",
              "type": "string"
            },
            {
              "internalType": "string",
              "name": "description",
              "type": "string"
            },
            {
              "internalType": "uint256",
              "name": "target",
              "type": "uint256"
            },
            {
              "internalType": "uint256",
              "name": "deadline",
              "type": "uint256"
            },
            {
              "internalType": "uint256",
              "name": "amountCollected",
              "type": "uint256"
            },
            {
              "internalType": "string",
              "name": "image",
              "type": "string"
            },
            {
              "internalType": "address[]",
              "name": "donators",
              "type": "address[]"
            },
            {
              "internalType": "uint256[]",
              "name": "donations",
              "type": "uint256[]"
            }
          ],
          "internalType": "struct CrowdFunding.Campaign[]",
          "name": "",
          "type": "tuple[]"
        }
      ],
      "stateMutability": "view",
      "type": "function"
    },
    {
      "inputs": [
        {
          "internalType": "uint256",
          "name": "_id",
          "type": "uint256"
        }
      ],
      "name": "getDonators",
      "outputs": [
        {
          "internalType": "address[]",
          "name": "",
          "type": "address[]"
        },
        {
          "internalType": "uint256[]",
          "name": "",
          "type": "uint256[]"
        }
      ],
      "stateMutability": "view",
      "type": "function"
    },
    {
      "inputs": [],
      "name": "numberOfCampaigns",
      "outputs": [
        {
          "internalType": "uint256",
          "name": "",
          "type": "uint256"
        }
      ],
      "stateMutability": "view",
      "type": "function"
    }
  ],
  "devdoc": {
    "kind": "dev",
    "methods": {},
    "version": 1
  },
  "evm": {
    "assembly": "    /* \"CrowdFunding.sol\":64:2164  contract CrowdFunding {... */\n  mstore(0x40, 0x80)\n    /* \"CrowdFunding.sol\":443:444  0 */\n  0x00\n    /* \"CrowdFunding.sol\":408:444  uint256 public numberOfCampaigns = 0 */\n  0x01\n  sstore\n    /* \"CrowdFunding.sol\":64:2164  contract CrowdFunding {... */\n  callvalue\n  dup1\n  iszero\n  tag_1\n  jumpi\n  0x00\n  dup1\n  revert\ntag_1:\n  pop\n  dataSize(sub_0)\n  dup1\n  dataOffset(sub_0)\n  0x00\n  codecopy\n  0x00\n  return\nstop\n\nsub_0: assembly {\n        /* \"CrowdFunding.sol\":64:2164  contract CrowdFunding {... */\n      mstore(0x40, 0x80)\n      jumpi(tag_1, lt(calldatasize, 0x04))\n      shr(0xe0, calldataload(0x00))\n      dup1\n      0x8ffff8b0\n      gt\n      tag_8\n      jumpi\n      dup1\n      0x8ffff8b0\n      eq\n      tag_5\n      jumpi\n      dup1\n      0x9943e3a1\n      eq\n      tag_6\n      jumpi\n      dup1\n      0xa6b03633\n      eq\n      tag_7\n      jumpi\n      0x00\n      dup1\n      revert\n    tag_8:\n      dup1\n      0x07ca140d\n      eq\n      tag_2\n      jumpi\n      dup1\n      0x0fa91fa9\n      eq\n      tag_3\n      jumpi\n      dup1\n      0x141961bc\n      eq\n      tag_4\n      jumpi\n    tag_1:\n      0x00\n      dup1\n      revert\n        /* \"CrowdFunding.sol\":408:444  uint256 public numberOfCampaigns = 0 */\n    tag_2:\n      callvalue\n      dup1\n      iszero\n      tag_9\n      jumpi\n      0x00\n      dup1\n      revert\n    tag_9:\n      pop\n      tag_10\n      sload(0x01)\n      dup2\n      jump\n    tag_10:\n      mload(0x40)\n        /* \"#utility.yul\":160:185   */\n      swap1\n      dup2\n      mstore\n        /* \"#utility.yul\":148:150   */\n      0x20\n        /* \"#utility.yul\":133:151   */\n      add\n        /* \"CrowdFunding.sol\":408:444  uint256 public numberOfCampaigns = 0 */\n    tag_12:\n      mload(0x40)\n      dup1\n      swap2\n      sub\n      swap1\n      return\n        /* \"CrowdFunding.sol\":1661:1823  function getDonators(uint256 _id)view public returns(address[] memory,uint256[] memory) {... */\n    tag_3:\n      callvalue\n      dup1\n      iszero\n      tag_14\n      jumpi\n      0x00\n      dup1\n      revert\n    tag_14:\n      pop\n      tag_15\n      tag_16\n      calldatasize\n      0x04\n      tag_17\n      jump\t// in\n    tag_16:\n      tag_18\n      jump\t// in\n    tag_15:\n      mload(0x40)\n      tag_12\n      swap3\n      swap2\n      swap1\n      tag_20\n      jump\t// in\n        /* \"CrowdFunding.sol\":356:401  mapping(uint256 => Campaign) public campaigns */\n    tag_4:\n      callvalue\n      dup1\n      iszero\n      tag_21\n      jumpi\n      0x00\n      dup1\n      revert\n    tag_21:\n      pop\n      tag_22\n      tag_23\n      calldatasize\n      0x04\n      tag_17\n      jump\t// in\n    tag_23:\n      tag_24\n      jump\t// in\n    tag_22:\n      mload(0x40)\n      tag_12\n      swap8\n      swap7\n      swap6\n      swap5\n      swap4\n      swap3\n      swap2\n      swap1\n      tag_26\n      jump\t// in\n        /* \"CrowdFunding.sol\":1245:1655  function donateCampaign(uint256 _id) public payable {... */\n    tag_5:\n      tag_27\n      tag_28\n      calldatasize\n      0x04\n      tag_17\n      jump\t// in\n    tag_28:\n      tag_29\n      jump\t// in\n    tag_27:\n      stop\n        /* \"CrowdFunding.sol\":451:1239  function createCampaign(... */\n    tag_6:\n      callvalue\n      dup1\n      iszero\n      tag_30\n      jumpi\n      0x00\n      dup1\n      revert\n    tag_30:\n      pop\n      tag_10\n      tag_32\n      calldatasize\n      0x04\n      tag_33\n      jump\t// in\n    tag_32:\n      tag_34\n      jump\t// in\n        /* \"CrowdFunding.sol\":1829:2161  function getCampaigns() public view returns(Campaign[] memory){... */\n    tag_7:\n      callvalue\n      dup1\n      iszero\n      tag_36\n      jumpi\n      0x00\n      dup1\n      revert\n    tag_36:\n      pop\n      tag_37\n      tag_38\n      jump\t// in\n    tag_37:\n      mload(0x40)\n      tag_12\n      swap2\n      swap1\n      tag_40\n      jump\t// in\n        /* \"CrowdFunding.sol\":1661:1823  function getDonators(uint256 _id)view public returns(address[] memory,uint256[] memory) {... */\n    tag_18:\n        /* \"CrowdFunding.sol\":1767:1776  campaigns */\n      0x00\n        /* \"CrowdFunding.sol\":1767:1781  campaigns[_id] */\n      dup2\n      dup2\n      mstore\n      0x20\n      dup2\n      dup2\n      mstore\n      0x40\n      swap2\n      dup3\n      swap1\n      keccak256\n        /* \"CrowdFunding.sol\":1767:1790  campaigns[_id].donators */\n      0x07\n      dup2\n      add\n        /* \"CrowdFunding.sol\":1759:1816  return (campaigns[_id].donators,campaigns[_id].donations) */\n      dup1\n      sload\n      dup5\n      mload\n      dup2\n      dup6\n      mul\n      dup2\n      add\n      dup6\n      add\n      swap1\n      swap6\n      mstore\n      dup1\n      dup6\n      mstore\n        /* \"CrowdFunding.sol\":1714:1730  address[] memory */\n      0x60\n      swap5\n      dup6\n      swap5\n        /* \"CrowdFunding.sol\":1767:1790  campaigns[_id].donators */\n      swap3\n      swap4\n        /* \"CrowdFunding.sol\":1791:1815  campaigns[_id].donations */\n      0x08\n      add\n      swap3\n        /* \"CrowdFunding.sol\":1759:1816  return (campaigns[_id].donators,campaigns[_id].donations) */\n      swap1\n      swap2\n        /* \"CrowdFunding.sol\":1767:1790  campaigns[_id].donators */\n      dup5\n      swap2\n        /* \"CrowdFunding.sol\":1759:1816  return (campaigns[_id].donators,campaigns[_id].donations) */\n      dup4\n      add\n        /* \"CrowdFunding.sol\":1767:1790  campaigns[_id].donators */\n      dup3\n        /* \"CrowdFunding.sol\":1759:1816  return (campaigns[_id].donators,campaigns[_id].donations) */\n      dup3\n      dup1\n      iszero\n      tag_42\n      jumpi\n      0x20\n      mul\n      dup3\n      add\n      swap2\n      swap1\n      0x00\n      mstore\n      keccak256(0x00, 0x20)\n      swap1\n    tag_43:\n      dup2\n      sload\n      sub(shl(0xa0, 0x01), 0x01)\n      and\n      dup2\n      mstore\n      0x01\n      swap1\n      swap2\n      add\n      swap1\n      0x20\n      add\n      dup1\n      dup4\n      gt\n      tag_43\n      jumpi\n    tag_42:\n      pop\n      pop\n      pop\n      pop\n      pop\n      swap2\n      pop\n      dup1\n      dup1\n      sload\n      dup1\n      0x20\n      mul\n      0x20\n      add\n      mload(0x40)\n      swap1\n      dup2\n      add\n      0x40\n      mstore\n      dup1\n      swap3\n      swap2\n      swap1\n      dup2\n      dup2\n      mstore\n      0x20\n      add\n      dup3\n      dup1\n      sload\n      dup1\n      iszero\n      tag_44\n      jumpi\n      0x20\n      mul\n      dup3\n      add\n      swap2\n      swap1\n      0x00\n      mstore\n      keccak256(0x00, 0x20)\n      swap1\n    tag_45:\n      dup2\n      sload\n      dup2\n      mstore\n      0x20\n      add\n      swap1\n      0x01\n      add\n      swap1\n      dup1\n      dup4\n      gt\n      tag_45\n      jumpi\n    tag_44:\n      pop\n      pop\n      pop\n      pop\n      pop\n      swap1\n      pop\n      swap2\n      pop\n      swap2\n      pop\n        /* \"CrowdFunding.sol\":1661:1823  function getDonators(uint256 _id)view public returns(address[] memory,uint256[] memory) {... */\n      swap2\n      pop\n      swap2\n      jump\t// out\n        /* \"CrowdFunding.sol\":356:401  mapping(uint256 => Campaign) public campaigns */\n    tag_24:\n      0x00\n      0x20\n      dup2\n      swap1\n      mstore\n      swap1\n      dup2\n      mstore\n      0x40\n      swap1\n      keccak256\n      dup1\n      sload\n      0x01\n      dup3\n      add\n      dup1\n      sload\n      sub(shl(0xa0, 0x01), 0x01)\n      swap1\n      swap3\n      and\n      swap3\n      swap2\n      tag_46\n      swap1\n      tag_47\n      jump\t// in\n    tag_46:\n      dup1\n      0x1f\n      add\n      0x20\n      dup1\n      swap2\n      div\n      mul\n      0x20\n      add\n      mload(0x40)\n      swap1\n      dup2\n      add\n      0x40\n      mstore\n      dup1\n      swap3\n      swap2\n      swap1\n      dup2\n      dup2\n      mstore\n      0x20\n      add\n      dup3\n      dup1\n      sload\n      tag_48\n      swap1\n      tag_47\n      jump\t// in\n    tag_48:\n      dup1\n      iszero\n      tag_49\n      jumpi\n      dup1\n      0x1f\n      lt\n      tag_50\n      jumpi\n      0x0100\n      dup1\n      dup4\n      sload\n      div\n      mul\n      dup4\n      mstore\n      swap2\n      0x20\n      add\n      swap2\n      jump(tag_49)\n    tag_50:\n      dup3\n      add\n      swap2\n      swap1\n      0x00\n      mstore\n      keccak256(0x00, 0x20)\n      swap1\n    tag_51:\n      dup2\n      sload\n      dup2\n      mstore\n      swap1\n      0x01\n      add\n      swap1\n      0x20\n      add\n      dup1\n      dup4\n      gt\n      tag_51\n      jumpi\n      dup3\n      swap1\n      sub\n      0x1f\n      and\n      dup3\n      add\n      swap2\n    tag_49:\n      pop\n      pop\n      pop\n      pop\n      pop\n      swap1\n      dup1\n      0x02\n      add\n      dup1\n      sload\n      tag_52\n      swap1\n      tag_47\n      jump\t// in\n    tag_52:\n      dup1\n      0x1f\n      add\n      0x20\n      dup1\n      swap2\n      div\n      mul\n      0x20\n      add\n      mload(0x40)\n      swap1\n      dup2\n      add\n      0x40\n      mstore\n      dup1\n      swap3\n      swap2\n      swap1\n      dup2\n      dup2\n      mstore\n      0x20\n      add\n      dup3\n      dup1\n      sload\n      tag_53\n      swap1\n      tag_47\n      jump\t// in\n    tag_53:\n      dup1\n      iszero\n      tag_54\n      jumpi\n      dup1\n      0x1f\n      lt\n      tag_55\n      jumpi\n      0x0100\n      dup1\n      dup4\n      sload\n      div\n      mul\n      dup4\n      mstore\n      swap2\n      0x20\n      add\n      swap2\n      jump(tag_54)\n    tag_55:\n      dup3\n      add\n      swap2\n      swap1\n      0x00\n      mstore\n      keccak256(0x00, 0x20)\n      swap1\n    tag_56:\n      dup2\n      sload\n      dup2\n      mstore\n      swap1\n      0x01\n      add\n      swap1\n      0x20\n      add\n      dup1\n      dup4\n      gt\n      tag_56\n      jumpi\n      dup3\n      swap1\n      sub\n      0x1f\n      and\n      dup3\n      add\n      swap2\n    tag_54:\n      pop\n      pop\n      pop\n      pop\n      pop\n      swap1\n      dup1\n      0x03\n      add\n      sload\n      swap1\n      dup1\n      0x04\n      add\n      sload\n      swap1\n      dup1\n      0x05\n      add\n      sload\n      swap1\n      dup1\n      0x06\n      add\n      dup1\n      sload\n      tag_57\n      swap1\n      tag_47\n      jump\t// in\n    tag_57:\n      dup1\n      0x1f\n      add\n      0x20\n      dup1\n      swap2\n      div\n      mul\n      0x20\n      add\n      mload(0x40)\n      swap1\n      dup2\n      add\n      0x40\n      mstore\n      dup1\n      swap3\n      swap2\n      swap1\n      dup2\n      dup2\n      mstore\n      0x20\n      add\n      dup3\n      dup1\n      sload\n      tag_58\n      swap1\n      tag_47\n      jump\t// in\n    tag_58:\n      dup1\n      iszero\n      tag_59\n      jumpi\n      dup1\n      0x1f\n      lt\n      tag_60\n      jumpi\n      0x0100\n      dup1\n      dup4\n      sload\n      div\n      mul\n      dup4\n      mstore\n      swap2\n      0x20\n      add\n      swap2\n      jump(tag_59)\n    tag_60:\n      dup3\n      add\n      swap2\n      swap1\n      0x00\n      mstore\n      keccak256(0x00, 0x20)\n      swap1\n    tag_61:\n      dup2\n      sload\n      dup2\n      mstore\n      swap1\n      0x01\n      add\n      swap1\n      0x20\n      add\n      dup1\n      dup4\n      gt\n      tag_61\n      jumpi\n      dup3\n      swap1\n      sub\n      0x1f\n      and\n      dup3\n      add\n      swap2\n    tag_59:\n      pop\n      pop\n      pop\n      pop\n      pop\n      swap1\n      pop\n      dup8\n      jump\t// out\n        /* \"CrowdFunding.sol\":1245:1655  function donateCampaign(uint256 _id) public payable {... */\n    tag_29:\n        /* \"CrowdFunding.sol\":1307:1321  uint256 amount */\n      0x00\n        /* \"CrowdFunding.sol\":1372:1386  campaigns[_id] */\n      dup2\n      dup2\n      mstore\n      0x20\n      dup2\n      dup2\n      mstore\n      0x40\n      dup1\n      dup4\n      keccak256\n        /* \"CrowdFunding.sol\":1397:1414  campaign.donators */\n      0x07\n      dup2\n      add\n        /* \"CrowdFunding.sol\":1397:1431  campaign.donators.push(msg.sender) */\n      dup1\n      sload\n      0x01\n      dup1\n      dup3\n      add\n      dup4\n      sstore\n      swap2\n      dup7\n      mstore\n      dup5\n      dup7\n      keccak256\n      add\n      dup1\n      sload\n      not(0xffffffffffffffffffffffffffffffffffffffff)\n      and\n        /* \"CrowdFunding.sol\":1420:1430  msg.sender */\n      caller\n        /* \"CrowdFunding.sol\":1397:1431  campaign.donators.push(msg.sender) */\n      or\n      swap1\n      sstore\n        /* \"CrowdFunding.sol\":1441:1459  campaign.donations */\n      0x08\n      dup3\n      add\n        /* \"CrowdFunding.sol\":1441:1472  campaign.donations.push(amount) */\n      dup1\n      sload\n      swap2\n      dup3\n      add\n      dup2\n      sstore\n      dup6\n      mstore\n      swap3\n      dup5\n      keccak256\n        /* \"CrowdFunding.sol\":1324:1333  msg.value */\n      callvalue\n        /* \"CrowdFunding.sol\":1441:1472  campaign.donations.push(amount) */\n      swap4\n      add\n      dup4\n      swap1\n      sstore\n        /* \"CrowdFunding.sol\":1506:1520  campaign.owner */\n      dup1\n      sload\n        /* \"CrowdFunding.sol\":1498:1545  payable(campaign.owner).call{value: amount}(\"\") */\n      swap2\n      mload\n        /* \"CrowdFunding.sol\":1324:1333  msg.value */\n      swap3\n      swap4\n        /* \"CrowdFunding.sol\":1372:1386  campaigns[_id] */\n      swap1\n      swap3\n        /* \"CrowdFunding.sol\":1307:1321  uint256 amount */\n      swap1\n      swap2\n      sub(shl(0xa0, 0x01), 0x01)\n        /* \"CrowdFunding.sol\":1506:1520  campaign.owner */\n      and\n      swap1\n        /* \"CrowdFunding.sol\":1324:1333  msg.value */\n      dup5\n      swap1\n        /* \"CrowdFunding.sol\":1307:1321  uint256 amount */\n      dup4\n        /* \"CrowdFunding.sol\":1498:1545  payable(campaign.owner).call{value: amount}(\"\") */\n      dup2\n        /* \"CrowdFunding.sol\":1307:1321  uint256 amount */\n      dup2\n        /* \"CrowdFunding.sol\":1498:1545  payable(campaign.owner).call{value: amount}(\"\") */\n      dup2\n        /* \"CrowdFunding.sol\":1324:1333  msg.value */\n      dup6\n        /* \"CrowdFunding.sol\":1506:1520  campaign.owner */\n      dup8\n        /* \"CrowdFunding.sol\":1498:1545  payable(campaign.owner).call{value: amount}(\"\") */\n      gas\n      call\n      swap3\n      pop\n      pop\n      pop\n      returndatasize\n      dup1\n      0x00\n      dup2\n      eq\n      tag_69\n      jumpi\n      mload(0x40)\n      swap2\n      pop\n      and(add(returndatasize, 0x3f), not(0x1f))\n      dup3\n      add\n      0x40\n      mstore\n      returndatasize\n      dup3\n      mstore\n      returndatasize\n      0x00\n      0x20\n      dup5\n      add\n      returndatacopy\n      jump(tag_68)\n    tag_69:\n      0x60\n      swap2\n      pop\n    tag_68:\n      pop\n        /* \"CrowdFunding.sol\":1483:1545  (bool sent,) = payable(campaign.owner).call{value: amount}(\"\") */\n      pop\n      swap1\n      pop\n        /* \"CrowdFunding.sol\":1559:1563  sent */\n      dup1\n        /* \"CrowdFunding.sol\":1556:1649  if(sent){... */\n      iszero\n      tag_70\n      jumpi\n        /* \"CrowdFunding.sol\":1632:1638  amount */\n      dup3\n        /* \"CrowdFunding.sol\":1605:1613  campaign */\n      dup3\n        /* \"CrowdFunding.sol\":1605:1629  campaign.amountCollected */\n      0x05\n      add\n      sload\n        /* \"CrowdFunding.sol\":1605:1638  campaign.amountCollected + amount */\n      tag_71\n      swap2\n      swap1\n      tag_72\n      jump\t// in\n    tag_71:\n        /* \"CrowdFunding.sol\":1578:1602  campaign.amountCollected */\n      0x05\n      dup4\n      add\n        /* \"CrowdFunding.sol\":1578:1638  campaign.amountCollected = campaign.amountCollected + amount */\n      sstore\n        /* \"CrowdFunding.sol\":1556:1649  if(sent){... */\n    tag_70:\n        /* \"CrowdFunding.sol\":1297:1655  {... */\n      pop\n      pop\n      pop\n        /* \"CrowdFunding.sol\":1245:1655  function donateCampaign(uint256 _id) public payable {... */\n      pop\n      jump\t// out\n        /* \"CrowdFunding.sol\":451:1239  function createCampaign(... */\n    tag_34:\n        /* \"CrowdFunding.sol\":726:743  numberOfCampaigns */\n      sload(0x01)\n        /* \"CrowdFunding.sol\":669:676  uint256 */\n      0x00\n        /* \"CrowdFunding.sol\":716:744  campaigns[numberOfCampaigns] */\n      swap1\n      dup2\n      mstore\n      0x20\n      dup2\n      swap1\n      mstore\n      0x40\n      dup2\n      keccak256\n        /* \"CrowdFunding.sol\":809:826  campaign.deadline */\n      0x04\n      dup2\n      add\n      sload\n        /* \"CrowdFunding.sol\":829:844  block.timestamp */\n      timestamp\n      gt\n        /* \"CrowdFunding.sol\":788:909  require(... */\n      tag_74\n      jumpi\n      mload(0x40)\n      shl(0xe5, 0x461bcd)\n      dup2\n      mstore\n        /* \"#utility.yul\":9104:9106   */\n      0x20\n        /* \"CrowdFunding.sol\":788:909  require(... */\n      0x04\n      dup3\n      add\n        /* \"#utility.yul\":9086:9107   */\n      mstore\n        /* \"#utility.yul\":9143:9145   */\n      0x27\n        /* \"#utility.yul\":9123:9141   */\n      0x24\n      dup3\n      add\n        /* \"#utility.yul\":9116:9146   */\n      mstore\n        /* \"#utility.yul\":9182:9216   */\n      0x54686520646561646c696e652073686f756c642062652061206461746520696e\n        /* \"#utility.yul\":9162:9180   */\n      0x44\n      dup3\n      add\n        /* \"#utility.yul\":9155:9217   */\n      mstore\n        /* \"#utility.yul\":9253:9262   */\n      0x2066757475726500000000000000000000000000000000000000000000000000\n        /* \"#utility.yul\":9233:9251   */\n      0x64\n      dup3\n      add\n        /* \"#utility.yul\":9226:9263   */\n      mstore\n        /* \"#utility.yul\":9280:9299   */\n      0x84\n      add\n        /* \"CrowdFunding.sol\":788:909  require(... */\n      mload(0x40)\n      dup1\n      swap2\n      sub\n      swap1\n      revert\n    tag_74:\n        /* \"CrowdFunding.sol\":919:942  campaign.owner = _owner */\n      dup1\n      sload\n      not(0xffffffffffffffffffffffffffffffffffffffff)\n      and\n      sub(shl(0xa0, 0x01), 0x01)\n      dup10\n      and\n      or\n      dup2\n      sstore\n      0x01\n        /* \"CrowdFunding.sol\":952:966  campaign.title */\n      dup2\n      add\n        /* \"CrowdFunding.sol\":952:975  campaign.title = _title */\n      tag_77\n        /* \"CrowdFunding.sol\":969:975  _title */\n      dup9\n        /* \"CrowdFunding.sol\":952:966  campaign.title */\n      dup3\n        /* \"CrowdFunding.sol\":952:975  campaign.title = _title */\n      tag_78\n      jump\t// in\n    tag_77:\n      pop\n        /* \"CrowdFunding.sol\":985:1000  campaign.target */\n      0x03\n      dup2\n      add\n        /* \"CrowdFunding.sol\":985:1010  campaign.target = _target */\n      dup6\n      swap1\n      sstore\n        /* \"CrowdFunding.sol\":1020:1040  campaign.description */\n      0x02\n      dup2\n      add\n        /* \"CrowdFunding.sol\":1020:1055  campaign.description = _description */\n      tag_79\n        /* \"CrowdFunding.sol\":1043:1055  _description */\n      dup8\n        /* \"CrowdFunding.sol\":1020:1040  campaign.description */\n      dup3\n        /* \"CrowdFunding.sol\":1020:1055  campaign.description = _description */\n      tag_78\n      jump\t// in\n    tag_79:\n      pop\n        /* \"CrowdFunding.sol\":1065:1082  campaign.deadline */\n      0x04\n      dup2\n      add\n        /* \"CrowdFunding.sol\":1065:1094  campaign.deadline = _deadline */\n      dup5\n      swap1\n      sstore\n        /* \"CrowdFunding.sol\":1131:1132  0 */\n      0x00\n        /* \"CrowdFunding.sol\":1104:1128  campaign.amountCollected */\n      0x05\n      dup3\n      add\n        /* \"CrowdFunding.sol\":1104:1132  campaign.amountCollected = 0 */\n      sstore\n        /* \"CrowdFunding.sol\":1142:1156  campaign.image */\n      0x06\n      dup2\n      add\n        /* \"CrowdFunding.sol\":1142:1165  campaign.image = _image */\n      tag_80\n        /* \"CrowdFunding.sol\":1159:1165  _image */\n      dup5\n        /* \"CrowdFunding.sol\":1142:1156  campaign.image */\n      dup3\n        /* \"CrowdFunding.sol\":1142:1165  campaign.image = _image */\n      tag_78\n      jump\t// in\n    tag_80:\n      pop\n        /* \"CrowdFunding.sol\":1175:1192  numberOfCampaigns */\n      0x01\n        /* \"CrowdFunding.sol\":1175:1194  numberOfCampaigns++ */\n      dup1\n      sload\n      swap1\n        /* \"CrowdFunding.sol\":1175:1192  numberOfCampaigns */\n      0x00\n        /* \"CrowdFunding.sol\":1175:1194  numberOfCampaigns++ */\n      tag_81\n      dup4\n      tag_82\n      jump\t// in\n    tag_81:\n      swap2\n      swap1\n      pop\n      sstore\n      pop\n        /* \"CrowdFunding.sol\":1231:1232  1 */\n      0x01\n        /* \"CrowdFunding.sol\":1211:1228  numberOfCampaigns */\n      dup1\n      sload\n        /* \"CrowdFunding.sol\":1211:1232  numberOfCampaigns - 1 */\n      tag_83\n      swap2\n      swap1\n      tag_84\n      jump\t// in\n    tag_83:\n        /* \"CrowdFunding.sol\":1204:1232  return numberOfCampaigns - 1 */\n      swap9\n        /* \"CrowdFunding.sol\":451:1239  function createCampaign(... */\n      swap8\n      pop\n      pop\n      pop\n      pop\n      pop\n      pop\n      pop\n      pop\n      jump\t// out\n        /* \"CrowdFunding.sol\":1829:2161  function getCampaigns() public view returns(Campaign[] memory){... */\n    tag_38:\n        /* \"CrowdFunding.sol\":1873:1890  Campaign[] memory */\n      0x60\n        /* \"CrowdFunding.sol\":1901:1931  Campaign[] memory allCampaigns */\n      0x00\n        /* \"CrowdFunding.sol\":1949:1966  numberOfCampaigns */\n      sload(0x01)\n        /* \"CrowdFunding.sol\":1934:1967  new Campaign[](numberOfCampaigns) */\n      0xffffffffffffffff\n      dup2\n      gt\n      iszero\n      tag_87\n      jumpi\n      tag_87\n      tag_88\n      jump\t// in\n    tag_87:\n      mload(0x40)\n      swap1\n      dup1\n      dup3\n      mstore\n      dup1\n      0x20\n      mul\n      0x20\n      add\n      dup3\n      add\n      0x40\n      mstore\n      dup1\n      iszero\n      tag_89\n      jumpi\n      dup2\n      0x20\n      add\n    tag_90:\n      tag_91\n      mload(0x40)\n      dup1\n      0x0120\n      add\n      0x40\n      mstore\n      dup1\n      and(sub(shl(0xa0, 0x01), 0x01), 0x00)\n      dup2\n      mstore\n      0x20\n      add\n      0x60\n      dup2\n      mstore\n      0x20\n      add\n      0x60\n      dup2\n      mstore\n      0x20\n      add\n      0x00\n      dup2\n      mstore\n      0x20\n      add\n      0x00\n      dup2\n      mstore\n      0x20\n      add\n      0x00\n      dup2\n      mstore\n      0x20\n      add\n      0x60\n      dup2\n      mstore\n      0x20\n      add\n      0x60\n      dup2\n      mstore\n      0x20\n      add\n      0x60\n      dup2\n      mstore\n      pop\n      swap1\n      jump\n    tag_91:\n      dup2\n      mstore\n      0x20\n      add\n      swap1\n      0x01\n      swap1\n      sub\n      swap1\n      dup2\n      tag_90\n      jumpi\n      swap1\n      pop\n    tag_89:\n      pop\n        /* \"CrowdFunding.sol\":1901:1967  Campaign[] memory allCampaigns = new Campaign[](numberOfCampaigns) */\n      swap1\n      pop\n        /* \"CrowdFunding.sol\":1982:1988  uint i */\n      0x00\n        /* \"CrowdFunding.sol\":1978:2125  for(uint i = 0; i<numberOfCampaigns; i++)... */\n    tag_93:\n        /* \"CrowdFunding.sol\":1996:2013  numberOfCampaigns */\n      sload(0x01)\n        /* \"CrowdFunding.sol\":1994:1995  i */\n      dup2\n        /* \"CrowdFunding.sol\":1994:2013  i<numberOfCampaigns */\n      lt\n        /* \"CrowdFunding.sol\":1978:2125  for(uint i = 0; i<numberOfCampaigns; i++)... */\n      iszero\n      tag_94\n      jumpi\n        /* \"CrowdFunding.sol\":2042:2063  Campaign storage item */\n      0x00\n        /* \"CrowdFunding.sol\":2066:2078  campaigns[i] */\n      dup2\n      dup2\n      mstore\n      0x20\n      dup2\n      dup2\n      mstore\n      0x40\n      swap2\n      dup3\n      swap1\n      keccak256\n        /* \"CrowdFunding.sol\":2092:2114  allCampaigns[i] = item */\n      dup3\n      mload\n      0x0120\n      dup2\n      add\n      swap1\n      swap4\n      mstore\n      dup1\n      sload\n      sub(shl(0xa0, 0x01), 0x01)\n      and\n      dup4\n      mstore\n      0x01\n      dup2\n      add\n      dup1\n      sload\n        /* \"CrowdFunding.sol\":2066:2078  campaigns[i] */\n      swap2\n      swap4\n        /* \"CrowdFunding.sol\":2092:2114  allCampaigns[i] = item */\n      swap3\n        /* \"CrowdFunding.sol\":2066:2078  campaigns[i] */\n      dup5\n      swap3\n        /* \"CrowdFunding.sol\":2092:2114  allCampaigns[i] = item */\n      swap1\n      dup5\n      add\n      swap2\n      swap1\n      tag_96\n      swap1\n      tag_47\n      jump\t// in\n    tag_96:\n      dup1\n      0x1f\n      add\n      0x20\n      dup1\n      swap2\n      div\n      mul\n      0x20\n      add\n      mload(0x40)\n      swap1\n      dup2\n      add\n      0x40\n      mstore\n      dup1\n      swap3\n      swap2\n      swap1\n      dup2\n      dup2\n      mstore\n      0x20\n      add\n      dup3\n      dup1\n      sload\n      tag_97\n      swap1\n      tag_47\n      jump\t// in\n    tag_97:\n      dup1\n      iszero\n      tag_98\n      jumpi\n      dup1\n      0x1f\n      lt\n      tag_99\n      jumpi\n      0x0100\n      dup1\n      dup4\n      sload\n      div\n      mul\n      dup4\n      mstore\n      swap2\n      0x20\n      add\n      swap2\n      jump(tag_98)\n    tag_99:\n      dup3\n      add\n      swap2\n      swap1\n      0x00\n      mstore\n      keccak256(0x00, 0x20)\n      swap1\n    tag_100:\n      dup2\n      sload\n      dup2\n      mstore\n      swap1\n      0x01\n      add\n      swap1\n      0x20\n      add\n      dup1\n      dup4\n      gt\n      tag_100\n      jumpi\n      dup3\n      swap1\n      sub\n      0x1f\n      and\n      dup3\n      add\n      swap2\n    tag_98:\n      pop\n      pop\n      pop\n      pop\n      pop\n      dup2\n      mstore\n      0x20\n      add\n      0x02\n      dup3\n      add\n      dup1\n      sload\n      tag_101\n      swap1\n      tag_47\n      jump\t// in\n    tag_101:\n      dup1\n      0x1f\n      add\n      0x20\n      dup1\n      swap2\n      div\n      mul\n      0x20\n      add\n      mload(0x40)\n      swap1\n      dup2\n      add\n      0x40\n      mstore\n      dup1\n      swap3\n      swap2\n      swap1\n      dup2\n      dup2\n      mstore\n      0x20\n      add\n      dup3\n      dup1\n      sload\n      tag_102\n      swap1\n      tag_47\n      jump\t// in\n    tag_102:\n      dup1\n      iszero\n      tag_103\n      jumpi\n      dup1\n      0x1f\n      lt\n      tag_104\n      jumpi\n      0x0100\n      dup1\n      dup4\n      sload\n      div\n      mul\n      dup4\n      mstore\n      swap2\n      0x20\n      add\n      swap2\n      jump(tag_103)\n    tag_104:\n      dup3\n      add\n      swap2\n      swap1\n      0x00\n      mstore\n      keccak256(0x00, 0x20)\n      swap1\n    tag_105:\n      dup2\n      sload\n      dup2\n      mstore\n      swap1\n      0x01\n      add\n      swap1\n      0x20\n      add\n      dup1\n      dup4\n      gt\n      tag_105\n      jumpi\n      dup3\n      swap1\n      sub\n      0x1f\n      and\n      dup3\n      add\n      swap2\n    tag_103:\n      pop\n      pop\n      pop\n      pop\n      pop\n      dup2\n      mstore\n      0x20\n      add\n      0x03\n      dup3\n      add\n      sload\n      dup2\n      mstore\n      0x20\n      add\n      0x04\n      dup3\n      add\n      sload\n      dup2\n      mstore\n      0x20\n      add\n      0x05\n      dup3\n      add\n      sload\n      dup2\n      mstore\n      0x20\n      add\n      0x06\n      dup3\n      add\n      dup1\n      sload\n      tag_106\n      swap1\n      tag_47\n      jump\t// in\n    tag_106:\n      dup1\n      0x1f\n      add\n      0x20\n      dup1\n      swap2\n      div\n      mul\n      0x20\n      add\n      mload(0x40)\n      swap1\n      dup2\n      add\n      0x40\n      mstore\n      dup1\n      swap3\n      swap2\n      swap1\n      dup2\n      dup2\n      mstore\n      0x20\n      add\n      dup3\n      dup1\n      sload\n      tag_107\n      swap1\n      tag_47\n      jump\t// in\n    tag_107:\n      dup1\n      iszero\n      tag_108\n      jumpi\n      dup1\n      0x1f\n      lt\n      tag_109\n      jumpi\n      0x0100\n      dup1\n      dup4\n      sload\n      div\n      mul\n      dup4\n      mstore\n      swap2\n      0x20\n      add\n      swap2\n      jump(tag_108)\n    tag_109:\n      dup3\n      add\n      swap2\n      swap1\n      0x00\n      mstore\n      keccak256(0x00, 0x20)\n      swap1\n    tag_110:\n      dup2\n      sload\n      dup2\n      mstore\n      swap1\n      0x01\n      add\n      swap1\n      0x20\n      add\n      dup1\n      dup4\n      gt\n      tag_110\n      jumpi\n      dup3\n      swap1\n      sub\n      0x1f\n      and\n      dup3\n      add\n      swap2\n    tag_108:\n      pop\n      pop\n      pop\n      pop\n      pop\n      dup2\n      mstore\n      0x20\n      add\n      0x07\n      dup3\n      add\n      dup1\n      sload\n      dup1\n      0x20\n      mul\n      0x20\n      add\n      mload(0x40)\n      swap1\n      dup2\n      add\n      0x40\n      mstore\n      dup1\n      swap3\n      swap2\n      swap1\n      dup2\n      dup2\n      mstore\n      0x20\n      add\n      dup3\n      dup1\n      sload\n      dup1\n      iszero\n      tag_111\n      jumpi\n      0x20\n      mul\n      dup3\n      add\n      swap2\n      swap1\n      0x00\n      mstore\n      keccak256(0x00, 0x20)\n      swap1\n    tag_112:\n      dup2\n      sload\n      sub(shl(0xa0, 0x01), 0x01)\n      and\n      dup2\n      mstore\n      0x01\n      swap1\n      swap2\n      add\n      swap1\n      0x20\n      add\n      dup1\n      dup4\n      gt\n      tag_112\n      jumpi\n    tag_111:\n      pop\n      pop\n      pop\n      pop\n      pop\n      dup2\n      mstore\n      0x20\n      add\n      0x08\n      dup3\n      add\n      dup1\n      sload\n      dup1\n      0x20\n      mul\n      0x20\n      add\n      mload(0x40)\n      swap1\n      dup2\n      add\n      0x40\n      mstore\n      dup1\n      swap3\n      swap2\n      swap1\n      dup2\n      dup2\n      mstore\n      0x20\n      add\n      dup3\n      dup1\n      sload\n      dup1\n      iszero\n      tag_113\n      jumpi\n      0x20\n      mul\n      dup3\n      add\n      swap2\n      swap1\n      0x00\n      mstore\n      keccak256(0x00, 0x20)\n      swap1\n    tag_114:\n      dup2\n      sload\n      dup2\n      mstore\n      0x20\n      add\n      swap1\n      0x01\n      add\n      swap1\n      dup1\n      dup4\n      gt\n      tag_114\n      jumpi\n    tag_113:\n      pop\n      pop\n      pop\n      pop\n      pop\n      dup2\n      mstore\n      pop\n      pop\n        /* \"CrowdFunding.sol\":2092:2104  allCampaigns */\n      dup4\n        /* \"CrowdFunding.sol\":2105:2106  i */\n      dup4\n        /* \"CrowdFunding.sol\":2092:2107  allCampaigns[i] */\n      dup2\n      mload\n      dup2\n      lt\n      tag_116\n      jumpi\n      tag_116\n      tag_117\n      jump\t// in\n    tag_116:\n      0x20\n      mul\n      0x20\n      add\n      add\n        /* \"CrowdFunding.sol\":2092:2114  allCampaigns[i] = item */\n      dup2\n      swap1\n      mstore\n      pop\n        /* \"CrowdFunding.sol\":2028:2125  {... */\n      pop\n        /* \"CrowdFunding.sol\":2015:2018  i++ */\n      dup1\n      dup1\n      tag_118\n      swap1\n      tag_82\n      jump\t// in\n    tag_118:\n      swap2\n      pop\n      pop\n        /* \"CrowdFunding.sol\":1978:2125  for(uint i = 0; i<numberOfCampaigns; i++)... */\n      jump(tag_93)\n    tag_94:\n      pop\n        /* \"CrowdFunding.sol\":2142:2154  allCampaigns */\n      swap2\n        /* \"CrowdFunding.sol\":1829:2161  function getCampaigns() public view returns(Campaign[] memory){... */\n      swap1\n      pop\n      jump\t// out\n        /* \"#utility.yul\":196:376   */\n    tag_17:\n        /* \"#utility.yul\":255:261   */\n      0x00\n        /* \"#utility.yul\":308:310   */\n      0x20\n        /* \"#utility.yul\":296:305   */\n      dup3\n        /* \"#utility.yul\":287:294   */\n      dup5\n        /* \"#utility.yul\":283:306   */\n      sub\n        /* \"#utility.yul\":279:311   */\n      slt\n        /* \"#utility.yul\":276:328   */\n      iszero\n      tag_131\n      jumpi\n        /* \"#utility.yul\":324:325   */\n      0x00\n        /* \"#utility.yul\":321:322   */\n      dup1\n        /* \"#utility.yul\":314:326   */\n      revert\n        /* \"#utility.yul\":276:328   */\n    tag_131:\n      pop\n        /* \"#utility.yul\":347:370   */\n      calldataload\n      swap2\n        /* \"#utility.yul\":196:376   */\n      swap1\n      pop\n      jump\t// out\n        /* \"#utility.yul\":513:1714   */\n    tag_20:\n        /* \"#utility.yul\":781:783   */\n      0x40\n        /* \"#utility.yul\":793:814   */\n      dup1\n      dup3\n      mstore\n        /* \"#utility.yul\":863:876   */\n      dup4\n      mload\n        /* \"#utility.yul\":766:784   */\n      swap1\n      dup3\n      add\n        /* \"#utility.yul\":885:907   */\n      dup2\n      swap1\n      mstore\n        /* \"#utility.yul\":733:737   */\n      0x00\n      swap1\n        /* \"#utility.yul\":960:964   */\n      0x20\n      swap1\n        /* \"#utility.yul\":938:940   */\n      0x60\n        /* \"#utility.yul\":923:941   */\n      dup5\n      add\n      swap1\n        /* \"#utility.yul\":987:1002   */\n      dup3\n      dup8\n      add\n        /* \"#utility.yul\":733:737   */\n      dup5\n        /* \"#utility.yul\":1030:1248   */\n    tag_134:\n        /* \"#utility.yul\":1044:1050   */\n      dup3\n        /* \"#utility.yul\":1041:1042   */\n      dup2\n        /* \"#utility.yul\":1038:1051   */\n      lt\n        /* \"#utility.yul\":1030:1248   */\n      iszero\n      tag_136\n      jumpi\n        /* \"#utility.yul\":1109:1122   */\n      dup2\n      mload\n      sub(shl(0xa0, 0x01), 0x01)\n        /* \"#utility.yul\":1105:1167   */\n      and\n        /* \"#utility.yul\":1093:1168   */\n      dup5\n      mstore\n        /* \"#utility.yul\":1188:1200   */\n      swap3\n      dup5\n      add\n      swap3\n        /* \"#utility.yul\":1223:1238   */\n      swap1\n      dup5\n      add\n      swap1\n        /* \"#utility.yul\":1066:1067   */\n      0x01\n        /* \"#utility.yul\":1059:1068   */\n      add\n        /* \"#utility.yul\":1030:1248   */\n      jump(tag_134)\n    tag_136:\n      pop\n      pop\n      pop\n        /* \"#utility.yul\":1284:1303   */\n      dup4\n      dup2\n      sub\n        /* \"#utility.yul\":1264:1282   */\n      dup3\n      dup6\n      add\n        /* \"#utility.yul\":1257:1304   */\n      mstore\n        /* \"#utility.yul\":1354:1367   */\n      dup5\n      mload\n        /* \"#utility.yul\":1376:1397   */\n      dup1\n      dup3\n      mstore\n        /* \"#utility.yul\":1452:1467   */\n      dup6\n      dup4\n      add\n      swap2\n        /* \"#utility.yul\":1415:1427   */\n      dup4\n      add\n      swap1\n        /* \"#utility.yul\":1487:1488   */\n      0x00\n        /* \"#utility.yul\":1497:1686   */\n    tag_137:\n        /* \"#utility.yul\":1513:1521   */\n      dup2\n        /* \"#utility.yul\":1508:1511   */\n      dup2\n        /* \"#utility.yul\":1505:1522   */\n      lt\n        /* \"#utility.yul\":1497:1686   */\n      iszero\n      tag_139\n      jumpi\n        /* \"#utility.yul\":1582:1597   */\n      dup4\n      mload\n        /* \"#utility.yul\":1568:1598   */\n      dup4\n      mstore\n        /* \"#utility.yul\":1659:1676   */\n      swap3\n      dup5\n      add\n      swap3\n        /* \"#utility.yul\":1620:1634   */\n      swap2\n      dup5\n      add\n      swap2\n        /* \"#utility.yul\":1541:1542   */\n      0x01\n        /* \"#utility.yul\":1532:1543   */\n      add\n        /* \"#utility.yul\":1497:1686   */\n      jump(tag_137)\n    tag_139:\n      pop\n        /* \"#utility.yul\":1703:1708   */\n      swap1\n      swap8\n        /* \"#utility.yul\":513:1714   */\n      swap7\n      pop\n      pop\n      pop\n      pop\n      pop\n      pop\n      pop\n      jump\t// out\n        /* \"#utility.yul\":1719:2142   */\n    tag_120:\n        /* \"#utility.yul\":1761:1764   */\n      0x00\n        /* \"#utility.yul\":1799:1804   */\n      dup2\n        /* \"#utility.yul\":1793:1805   */\n      mload\n        /* \"#utility.yul\":1826:1832   */\n      dup1\n        /* \"#utility.yul\":1821:1824   */\n      dup5\n        /* \"#utility.yul\":1814:1833   */\n      mstore\n        /* \"#utility.yul\":1851:1852   */\n      0x00\n        /* \"#utility.yul\":1861:2023   */\n    tag_141:\n        /* \"#utility.yul\":1875:1881   */\n      dup2\n        /* \"#utility.yul\":1872:1873   */\n      dup2\n        /* \"#utility.yul\":1869:1882   */\n      lt\n        /* \"#utility.yul\":1861:2023   */\n      iszero\n      tag_143\n      jumpi\n        /* \"#utility.yul\":1937:1941   */\n      0x20\n        /* \"#utility.yul\":1993:2006   */\n      dup2\n      dup6\n      add\n        /* \"#utility.yul\":1989:2011   */\n      dup2\n      add\n        /* \"#utility.yul\":1983:2012   */\n      mload\n        /* \"#utility.yul\":1965:1976   */\n      dup7\n      dup4\n      add\n        /* \"#utility.yul\":1961:1981   */\n      dup3\n      add\n        /* \"#utility.yul\":1954:2013   */\n      mstore\n        /* \"#utility.yul\":1890:1902   */\n      add\n        /* \"#utility.yul\":1861:2023   */\n      jump(tag_141)\n    tag_143:\n        /* \"#utility.yul\":1865:1868   */\n      pop\n        /* \"#utility.yul\":2068:2069   */\n      0x00\n        /* \"#utility.yul\":2061:2065   */\n      0x20\n        /* \"#utility.yul\":2052:2058   */\n      dup3\n        /* \"#utility.yul\":2047:2050   */\n      dup7\n        /* \"#utility.yul\":2043:2059   */\n      add\n        /* \"#utility.yul\":2039:2066   */\n      add\n        /* \"#utility.yul\":2032:2070   */\n      mstore\n        /* \"#utility.yul\":2131:2135   */\n      0x20\n        /* \"#utility.yul\":2124:2126   */\n      0x1f\n        /* \"#utility.yul\":2120:2127   */\n      not\n        /* \"#utility.yul\":2115:2117   */\n      0x1f\n        /* \"#utility.yul\":2107:2113   */\n      dup4\n        /* \"#utility.yul\":2103:2118   */\n      add\n        /* \"#utility.yul\":2099:2128   */\n      and\n        /* \"#utility.yul\":2094:2097   */\n      dup6\n        /* \"#utility.yul\":2090:2129   */\n      add\n        /* \"#utility.yul\":2086:2136   */\n      add\n        /* \"#utility.yul\":2079:2136   */\n      swap2\n      pop\n      pop\n        /* \"#utility.yul\":1719:2142   */\n      swap3\n      swap2\n      pop\n      pop\n      jump\t// out\n        /* \"#utility.yul\":2147:3031   */\n    tag_26:\n      sub(shl(0xa0, 0x01), 0x01)\n        /* \"#utility.yul\":2508:2514   */\n      dup9\n        /* \"#utility.yul\":2504:2559   */\n      and\n        /* \"#utility.yul\":2493:2502   */\n      dup2\n        /* \"#utility.yul\":2486:2560   */\n      mstore\n        /* \"#utility.yul\":2596:2599   */\n      0xe0\n        /* \"#utility.yul\":2591:2593   */\n      0x20\n        /* \"#utility.yul\":2580:2589   */\n      dup3\n        /* \"#utility.yul\":2576:2594   */\n      add\n        /* \"#utility.yul\":2569:2600   */\n      mstore\n        /* \"#utility.yul\":2467:2471   */\n      0x00\n        /* \"#utility.yul\":2623:2669   */\n      tag_145\n        /* \"#utility.yul\":2664:2667   */\n      0xe0\n        /* \"#utility.yul\":2653:2662   */\n      dup4\n        /* \"#utility.yul\":2649:2668   */\n      add\n        /* \"#utility.yul\":2641:2647   */\n      dup10\n        /* \"#utility.yul\":2623:2669   */\n      tag_120\n      jump\t// in\n    tag_145:\n        /* \"#utility.yul\":2717:2726   */\n      dup3\n        /* \"#utility.yul\":2709:2715   */\n      dup2\n        /* \"#utility.yul\":2705:2727   */\n      sub\n        /* \"#utility.yul\":2700:2702   */\n      0x40\n        /* \"#utility.yul\":2689:2698   */\n      dup5\n        /* \"#utility.yul\":2685:2703   */\n      add\n        /* \"#utility.yul\":2678:2728   */\n      mstore\n        /* \"#utility.yul\":2751:2784   */\n      tag_146\n        /* \"#utility.yul\":2777:2783   */\n      dup2\n        /* \"#utility.yul\":2769:2775   */\n      dup10\n        /* \"#utility.yul\":2751:2784   */\n      tag_120\n      jump\t// in\n    tag_146:\n        /* \"#utility.yul\":2737:2784   */\n      swap1\n      pop\n        /* \"#utility.yul\":2820:2826   */\n      dup7\n        /* \"#utility.yul\":2815:2817   */\n      0x60\n        /* \"#utility.yul\":2804:2813   */\n      dup5\n        /* \"#utility.yul\":2800:2818   */\n      add\n        /* \"#utility.yul\":2793:2827   */\n      mstore\n        /* \"#utility.yul\":2864:2870   */\n      dup6\n        /* \"#utility.yul\":2858:2861   */\n      0x80\n        /* \"#utility.yul\":2847:2856   */\n      dup5\n        /* \"#utility.yul\":2843:2862   */\n      add\n        /* \"#utility.yul\":2836:2871   */\n      mstore\n        /* \"#utility.yul\":2908:2914   */\n      dup5\n        /* \"#utility.yul\":2902:2905   */\n      0xa0\n        /* \"#utility.yul\":2891:2900   */\n      dup5\n        /* \"#utility.yul\":2887:2906   */\n      add\n        /* \"#utility.yul\":2880:2915   */\n      mstore\n        /* \"#utility.yul\":2964:2973   */\n      dup3\n        /* \"#utility.yul\":2956:2962   */\n      dup2\n        /* \"#utility.yul\":2952:2974   */\n      sub\n        /* \"#utility.yul\":2946:2949   */\n      0xc0\n        /* \"#utility.yul\":2935:2944   */\n      dup5\n        /* \"#utility.yul\":2931:2950   */\n      add\n        /* \"#utility.yul\":2924:2975   */\n      mstore\n        /* \"#utility.yul\":2992:3025   */\n      tag_147\n        /* \"#utility.yul\":3018:3024   */\n      dup2\n        /* \"#utility.yul\":3010:3016   */\n      dup6\n        /* \"#utility.yul\":2992:3025   */\n      tag_120\n      jump\t// in\n    tag_147:\n        /* \"#utility.yul\":2984:3025   */\n      swap11\n        /* \"#utility.yul\":2147:3031   */\n      swap10\n      pop\n      pop\n      pop\n      pop\n      pop\n      pop\n      pop\n      pop\n      pop\n      pop\n      jump\t// out\n        /* \"#utility.yul\":3036:3163   */\n    tag_88:\n        /* \"#utility.yul\":3097:3107   */\n      0x4e487b71\n        /* \"#utility.yul\":3092:3095   */\n      0xe0\n        /* \"#utility.yul\":3088:3108   */\n      shl\n        /* \"#utility.yul\":3085:3086   */\n      0x00\n        /* \"#utility.yul\":3078:3109   */\n      mstore\n        /* \"#utility.yul\":3128:3132   */\n      0x41\n        /* \"#utility.yul\":3125:3126   */\n      0x04\n        /* \"#utility.yul\":3118:3133   */\n      mstore\n        /* \"#utility.yul\":3152:3156   */\n      0x24\n        /* \"#utility.yul\":3149:3150   */\n      0x00\n        /* \"#utility.yul\":3142:3157   */\n      revert\n        /* \"#utility.yul\":3168:3887   */\n    tag_121:\n        /* \"#utility.yul\":3211:3216   */\n      0x00\n        /* \"#utility.yul\":3264:3267   */\n      dup3\n        /* \"#utility.yul\":3257:3261   */\n      0x1f\n        /* \"#utility.yul\":3249:3255   */\n      dup4\n        /* \"#utility.yul\":3245:3262   */\n      add\n        /* \"#utility.yul\":3241:3268   */\n      slt\n        /* \"#utility.yul\":3231:3286   */\n      tag_150\n      jumpi\n        /* \"#utility.yul\":3282:3283   */\n      0x00\n        /* \"#utility.yul\":3279:3280   */\n      dup1\n        /* \"#utility.yul\":3272:3284   */\n      revert\n        /* \"#utility.yul\":3231:3286   */\n    tag_150:\n        /* \"#utility.yul\":3318:3324   */\n      dup2\n        /* \"#utility.yul\":3305:3325   */\n      calldataload\n        /* \"#utility.yul\":3344:3362   */\n      0xffffffffffffffff\n        /* \"#utility.yul\":3381:3383   */\n      dup1\n        /* \"#utility.yul\":3377:3379   */\n      dup3\n        /* \"#utility.yul\":3374:3384   */\n      gt\n        /* \"#utility.yul\":3371:3407   */\n      iszero\n      tag_152\n      jumpi\n        /* \"#utility.yul\":3387:3405   */\n      tag_152\n      tag_88\n      jump\t// in\n    tag_152:\n        /* \"#utility.yul\":3462:3464   */\n      0x40\n        /* \"#utility.yul\":3456:3465   */\n      mload\n        /* \"#utility.yul\":3430:3432   */\n      0x1f\n        /* \"#utility.yul\":3516:3529   */\n      dup4\n      add\n      not(0x1f)\n        /* \"#utility.yul\":3512:3534   */\n      swap1\n      dup2\n      and\n        /* \"#utility.yul\":3536:3538   */\n      0x3f\n        /* \"#utility.yul\":3508:3539   */\n      add\n        /* \"#utility.yul\":3504:3544   */\n      and\n        /* \"#utility.yul\":3492:3545   */\n      dup2\n      add\n      swap1\n        /* \"#utility.yul\":3560:3578   */\n      dup3\n      dup3\n      gt\n        /* \"#utility.yul\":3580:3602   */\n      dup2\n      dup4\n      lt\n        /* \"#utility.yul\":3557:3603   */\n      or\n        /* \"#utility.yul\":3554:3626   */\n      iszero\n      tag_154\n      jumpi\n        /* \"#utility.yul\":3606:3624   */\n      tag_154\n      tag_88\n      jump\t// in\n    tag_154:\n        /* \"#utility.yul\":3646:3656   */\n      dup2\n        /* \"#utility.yul\":3642:3644   */\n      0x40\n        /* \"#utility.yul\":3635:3657   */\n      mstore\n        /* \"#utility.yul\":3681:3683   */\n      dup4\n        /* \"#utility.yul\":3673:3679   */\n      dup2\n        /* \"#utility.yul\":3666:3684   */\n      mstore\n        /* \"#utility.yul\":3727:3730   */\n      dup7\n        /* \"#utility.yul\":3720:3724   */\n      0x20\n        /* \"#utility.yul\":3715:3717   */\n      dup6\n        /* \"#utility.yul\":3707:3713   */\n      dup9\n        /* \"#utility.yul\":3703:3718   */\n      add\n        /* \"#utility.yul\":3699:3725   */\n      add\n        /* \"#utility.yul\":3696:3731   */\n      gt\n        /* \"#utility.yul\":3693:3748   */\n      iszero\n      tag_155\n      jumpi\n        /* \"#utility.yul\":3744:3745   */\n      0x00\n        /* \"#utility.yul\":3741:3742   */\n      dup1\n        /* \"#utility.yul\":3734:3746   */\n      revert\n        /* \"#utility.yul\":3693:3748   */\n    tag_155:\n        /* \"#utility.yul\":3808:3810   */\n      dup4\n        /* \"#utility.yul\":3801:3805   */\n      0x20\n        /* \"#utility.yul\":3793:3799   */\n      dup8\n        /* \"#utility.yul\":3789:3806   */\n      add\n        /* \"#utility.yul\":3782:3786   */\n      0x20\n        /* \"#utility.yul\":3774:3780   */\n      dup4\n        /* \"#utility.yul\":3770:3787   */\n      add\n        /* \"#utility.yul\":3757:3811   */\n      calldatacopy\n        /* \"#utility.yul\":3855:3856   */\n      0x00\n        /* \"#utility.yul\":3848:3852   */\n      0x20\n        /* \"#utility.yul\":3843:3845   */\n      dup6\n        /* \"#utility.yul\":3835:3841   */\n      dup4\n        /* \"#utility.yul\":3831:3846   */\n      add\n        /* \"#utility.yul\":3827:3853   */\n      add\n        /* \"#utility.yul\":3820:3857   */\n      mstore\n        /* \"#utility.yul\":3875:3881   */\n      dup1\n        /* \"#utility.yul\":3866:3881   */\n      swap5\n      pop\n      pop\n      pop\n      pop\n      pop\n        /* \"#utility.yul\":3168:3887   */\n      swap3\n      swap2\n      pop\n      pop\n      jump\t// out\n        /* \"#utility.yul\":3892:4971   */\n    tag_33:\n        /* \"#utility.yul\":4026:4032   */\n      0x00\n        /* \"#utility.yul\":4034:4040   */\n      dup1\n        /* \"#utility.yul\":4042:4048   */\n      0x00\n        /* \"#utility.yul\":4050:4056   */\n      dup1\n        /* \"#utility.yul\":4058:4064   */\n      0x00\n        /* \"#utility.yul\":4066:4072   */\n      dup1\n        /* \"#utility.yul\":4119:4122   */\n      0xc0\n        /* \"#utility.yul\":4107:4116   */\n      dup8\n        /* \"#utility.yul\":4098:4105   */\n      dup10\n        /* \"#utility.yul\":4094:4117   */\n      sub\n        /* \"#utility.yul\":4090:4123   */\n      slt\n        /* \"#utility.yul\":4087:4140   */\n      iszero\n      tag_157\n      jumpi\n        /* \"#utility.yul\":4136:4137   */\n      0x00\n        /* \"#utility.yul\":4133:4134   */\n      dup1\n        /* \"#utility.yul\":4126:4138   */\n      revert\n        /* \"#utility.yul\":4087:4140   */\n    tag_157:\n        /* \"#utility.yul\":4175:4184   */\n      dup7\n        /* \"#utility.yul\":4162:4185   */\n      calldataload\n      sub(shl(0xa0, 0x01), 0x01)\n        /* \"#utility.yul\":4218:4223   */\n      dup2\n        /* \"#utility.yul\":4214:4268   */\n      and\n        /* \"#utility.yul\":4207:4212   */\n      dup2\n        /* \"#utility.yul\":4204:4269   */\n      eq\n        /* \"#utility.yul\":4194:4287   */\n      tag_158\n      jumpi\n        /* \"#utility.yul\":4283:4284   */\n      0x00\n        /* \"#utility.yul\":4280:4281   */\n      dup1\n        /* \"#utility.yul\":4273:4285   */\n      revert\n        /* \"#utility.yul\":4194:4287   */\n    tag_158:\n        /* \"#utility.yul\":4306:4311   */\n      swap6\n      pop\n        /* \"#utility.yul\":4362:4364   */\n      0x20\n        /* \"#utility.yul\":4347:4365   */\n      dup8\n      add\n        /* \"#utility.yul\":4334:4366   */\n      calldataload\n        /* \"#utility.yul\":4385:4403   */\n      0xffffffffffffffff\n        /* \"#utility.yul\":4415:4429   */\n      dup1\n      dup3\n      gt\n        /* \"#utility.yul\":4412:4446   */\n      iszero\n      tag_159\n      jumpi\n        /* \"#utility.yul\":4442:4443   */\n      0x00\n        /* \"#utility.yul\":4439:4440   */\n      dup1\n        /* \"#utility.yul\":4432:4444   */\n      revert\n        /* \"#utility.yul\":4412:4446   */\n    tag_159:\n        /* \"#utility.yul\":4465:4515   */\n      tag_160\n        /* \"#utility.yul\":4507:4514   */\n      dup11\n        /* \"#utility.yul\":4498:4504   */\n      dup4\n        /* \"#utility.yul\":4487:4496   */\n      dup12\n        /* \"#utility.yul\":4483:4505   */\n      add\n        /* \"#utility.yul\":4465:4515   */\n      tag_121\n      jump\t// in\n    tag_160:\n        /* \"#utility.yul\":4455:4515   */\n      swap7\n      pop\n        /* \"#utility.yul\":4568:4570   */\n      0x40\n        /* \"#utility.yul\":4557:4566   */\n      dup10\n        /* \"#utility.yul\":4553:4571   */\n      add\n        /* \"#utility.yul\":4540:4572   */\n      calldataload\n        /* \"#utility.yul\":4524:4572   */\n      swap2\n      pop\n        /* \"#utility.yul\":4597:4599   */\n      dup1\n        /* \"#utility.yul\":4587:4595   */\n      dup3\n        /* \"#utility.yul\":4584:4600   */\n      gt\n        /* \"#utility.yul\":4581:4617   */\n      iszero\n      tag_161\n      jumpi\n        /* \"#utility.yul\":4613:4614   */\n      0x00\n        /* \"#utility.yul\":4610:4611   */\n      dup1\n        /* \"#utility.yul\":4603:4615   */\n      revert\n        /* \"#utility.yul\":4581:4617   */\n    tag_161:\n        /* \"#utility.yul\":4636:4688   */\n      tag_162\n        /* \"#utility.yul\":4680:4687   */\n      dup11\n        /* \"#utility.yul\":4669:4677   */\n      dup4\n        /* \"#utility.yul\":4658:4667   */\n      dup12\n        /* \"#utility.yul\":4654:4678   */\n      add\n        /* \"#utility.yul\":4636:4688   */\n      tag_121\n      jump\t// in\n    tag_162:\n        /* \"#utility.yul\":4626:4688   */\n      swap6\n      pop\n        /* \"#utility.yul\":4735:4737   */\n      0x60\n        /* \"#utility.yul\":4724:4733   */\n      dup10\n        /* \"#utility.yul\":4720:4738   */\n      add\n        /* \"#utility.yul\":4707:4739   */\n      calldataload\n        /* \"#utility.yul\":4697:4739   */\n      swap5\n      pop\n        /* \"#utility.yul\":4786:4789   */\n      0x80\n        /* \"#utility.yul\":4775:4784   */\n      dup10\n        /* \"#utility.yul\":4771:4790   */\n      add\n        /* \"#utility.yul\":4758:4791   */\n      calldataload\n        /* \"#utility.yul\":4748:4791   */\n      swap4\n      pop\n        /* \"#utility.yul\":4844:4847   */\n      0xa0\n        /* \"#utility.yul\":4833:4842   */\n      dup10\n        /* \"#utility.yul\":4829:4848   */\n      add\n        /* \"#utility.yul\":4816:4849   */\n      calldataload\n        /* \"#utility.yul\":4800:4849   */\n      swap2\n      pop\n        /* \"#utility.yul\":4874:4876   */\n      dup1\n        /* \"#utility.yul\":4864:4872   */\n      dup3\n        /* \"#utility.yul\":4861:4877   */\n      gt\n        /* \"#utility.yul\":4858:4894   */\n      iszero\n      tag_163\n      jumpi\n        /* \"#utility.yul\":4890:4891   */\n      0x00\n        /* \"#utility.yul\":4887:4888   */\n      dup1\n        /* \"#utility.yul\":4880:4892   */\n      revert\n        /* \"#utility.yul\":4858:4894   */\n    tag_163:\n      pop\n        /* \"#utility.yul\":4913:4965   */\n      tag_164\n        /* \"#utility.yul\":4957:4964   */\n      dup10\n        /* \"#utility.yul\":4946:4954   */\n      dup3\n        /* \"#utility.yul\":4935:4944   */\n      dup11\n        /* \"#utility.yul\":4931:4955   */\n      add\n        /* \"#utility.yul\":4913:4965   */\n      tag_121\n      jump\t// in\n    tag_164:\n        /* \"#utility.yul\":4903:4965   */\n      swap2\n      pop\n      pop\n        /* \"#utility.yul\":3892:4971   */\n      swap3\n      swap6\n      pop\n      swap3\n      swap6\n      pop\n      swap3\n      swap6\n      jump\t// out\n        /* \"#utility.yul\":4976:5460   */\n    tag_122:\n        /* \"#utility.yul\":5029:5032   */\n      0x00\n        /* \"#utility.yul\":5067:5072   */\n      dup2\n        /* \"#utility.yul\":5061:5073   */\n      mload\n        /* \"#utility.yul\":5094:5100   */\n      dup1\n        /* \"#utility.yul\":5089:5092   */\n      dup5\n        /* \"#utility.yul\":5082:5101   */\n      mstore\n        /* \"#utility.yul\":5120:5124   */\n      0x20\n        /* \"#utility.yul\":5149:5151   */\n      dup1\n        /* \"#utility.yul\":5144:5147   */\n      dup6\n        /* \"#utility.yul\":5140:5152   */\n      add\n        /* \"#utility.yul\":5133:5152   */\n      swap5\n      pop\n        /* \"#utility.yul\":5186:5188   */\n      dup1\n        /* \"#utility.yul\":5179:5184   */\n      dup5\n        /* \"#utility.yul\":5175:5189   */\n      add\n        /* \"#utility.yul\":5207:5208   */\n      0x00\n        /* \"#utility.yul\":5217:5435   */\n    tag_166:\n        /* \"#utility.yul\":5231:5237   */\n      dup4\n        /* \"#utility.yul\":5228:5229   */\n      dup2\n        /* \"#utility.yul\":5225:5238   */\n      lt\n        /* \"#utility.yul\":5217:5435   */\n      iszero\n      tag_168\n      jumpi\n        /* \"#utility.yul\":5296:5309   */\n      dup2\n      mload\n      sub(shl(0xa0, 0x01), 0x01)\n        /* \"#utility.yul\":5292:5354   */\n      and\n        /* \"#utility.yul\":5280:5355   */\n      dup8\n      mstore\n        /* \"#utility.yul\":5375:5387   */\n      swap6\n      dup3\n      add\n      swap6\n        /* \"#utility.yul\":5410:5425   */\n      swap1\n      dup3\n      add\n      swap1\n        /* \"#utility.yul\":5253:5254   */\n      0x01\n        /* \"#utility.yul\":5246:5255   */\n      add\n        /* \"#utility.yul\":5217:5435   */\n      jump(tag_166)\n    tag_168:\n      pop\n        /* \"#utility.yul\":5451:5454   */\n      swap5\n      swap6\n        /* \"#utility.yul\":4976:5460   */\n      swap5\n      pop\n      pop\n      pop\n      pop\n      pop\n      jump\t// out\n        /* \"#utility.yul\":5465:5900   */\n    tag_123:\n        /* \"#utility.yul\":5518:5521   */\n      0x00\n        /* \"#utility.yul\":5556:5561   */\n      dup2\n        /* \"#utility.yul\":5550:5562   */\n      mload\n        /* \"#utility.yul\":5583:5589   */\n      dup1\n        /* \"#utility.yul\":5578:5581   */\n      dup5\n        /* \"#utility.yul\":5571:5590   */\n      mstore\n        /* \"#utility.yul\":5609:5613   */\n      0x20\n        /* \"#utility.yul\":5638:5640   */\n      dup1\n        /* \"#utility.yul\":5633:5636   */\n      dup6\n        /* \"#utility.yul\":5629:5641   */\n      add\n        /* \"#utility.yul\":5622:5641   */\n      swap5\n      pop\n        /* \"#utility.yul\":5675:5677   */\n      dup1\n        /* \"#utility.yul\":5668:5673   */\n      dup5\n        /* \"#utility.yul\":5664:5678   */\n      add\n        /* \"#utility.yul\":5696:5697   */\n      0x00\n        /* \"#utility.yul\":5706:5875   */\n    tag_170:\n        /* \"#utility.yul\":5720:5726   */\n      dup4\n        /* \"#utility.yul\":5717:5718   */\n      dup2\n        /* \"#utility.yul\":5714:5727   */\n      lt\n        /* \"#utility.yul\":5706:5875   */\n      iszero\n      tag_168\n      jumpi\n        /* \"#utility.yul\":5781:5794   */\n      dup2\n      mload\n        /* \"#utility.yul\":5769:5795   */\n      dup8\n      mstore\n        /* \"#utility.yul\":5815:5827   */\n      swap6\n      dup3\n      add\n      swap6\n        /* \"#utility.yul\":5850:5865   */\n      swap1\n      dup3\n      add\n      swap1\n        /* \"#utility.yul\":5742:5743   */\n      0x01\n        /* \"#utility.yul\":5735:5744   */\n      add\n        /* \"#utility.yul\":5706:5875   */\n      jump(tag_170)\n        /* \"#utility.yul\":5905:8040   */\n    tag_40:\n        /* \"#utility.yul\":6095:6099   */\n      0x00\n        /* \"#utility.yul\":6124:6126   */\n      0x20\n        /* \"#utility.yul\":6164:6166   */\n      dup1\n        /* \"#utility.yul\":6153:6162   */\n      dup4\n        /* \"#utility.yul\":6149:6167   */\n      add\n        /* \"#utility.yul\":6194:6196   */\n      dup2\n        /* \"#utility.yul\":6183:6192   */\n      dup5\n        /* \"#utility.yul\":6176:6197   */\n      mstore\n        /* \"#utility.yul\":6217:6223   */\n      dup1\n        /* \"#utility.yul\":6252:6258   */\n      dup6\n        /* \"#utility.yul\":6246:6259   */\n      mload\n        /* \"#utility.yul\":6283:6289   */\n      dup1\n        /* \"#utility.yul\":6275:6281   */\n      dup4\n        /* \"#utility.yul\":6268:6290   */\n      mstore\n        /* \"#utility.yul\":6309:6311   */\n      0x40\n        /* \"#utility.yul\":6299:6311   */\n      swap3\n      pop\n        /* \"#utility.yul\":6342:6344   */\n      dup3\n        /* \"#utility.yul\":6331:6340   */\n      dup7\n        /* \"#utility.yul\":6327:6345   */\n      add\n        /* \"#utility.yul\":6320:6345   */\n      swap2\n      pop\n        /* \"#utility.yul\":6404:6406   */\n      dup3\n        /* \"#utility.yul\":6394:6400   */\n      dup2\n        /* \"#utility.yul\":6391:6392   */\n      0x05\n        /* \"#utility.yul\":6387:6401   */\n      shl\n        /* \"#utility.yul\":6376:6385   */\n      dup8\n        /* \"#utility.yul\":6372:6402   */\n      add\n        /* \"#utility.yul\":6368:6407   */\n      add\n        /* \"#utility.yul\":6442:6444   */\n      dup5\n        /* \"#utility.yul\":6434:6440   */\n      dup9\n        /* \"#utility.yul\":6430:6445   */\n      add\n        /* \"#utility.yul\":6463:6464   */\n      0x00\n        /* \"#utility.yul\":6473:8011   */\n    tag_174:\n        /* \"#utility.yul\":6487:6493   */\n      dup4\n        /* \"#utility.yul\":6484:6485   */\n      dup2\n        /* \"#utility.yul\":6481:6494   */\n      lt\n        /* \"#utility.yul\":6473:8011   */\n      iszero\n      tag_176\n      jumpi\n        /* \"#utility.yul\":6552:6574   */\n      dup9\n      dup4\n      sub\n      not(0x3f)\n        /* \"#utility.yul\":6548:6584   */\n      add\n        /* \"#utility.yul\":6536:6585   */\n      dup6\n      mstore\n        /* \"#utility.yul\":6608:6621   */\n      dup2\n      mload\n        /* \"#utility.yul\":6682:6691   */\n      dup1\n      mload\n      sub(shl(0xa0, 0x01), 0x01)\n        /* \"#utility.yul\":447:501   */\n      and\n        /* \"#utility.yul\":435:502   */\n      dup5\n      mstore\n        /* \"#utility.yul\":6644:6650   */\n      0x0120\n        /* \"#utility.yul\":6747:6749   */\n      dup9\n        /* \"#utility.yul\":6743:6745   */\n      dup3\n        /* \"#utility.yul\":6739:6750   */\n      add\n        /* \"#utility.yul\":6733:6751   */\n      mload\n        /* \"#utility.yul\":6788:6790   */\n      dup2\n        /* \"#utility.yul\":6783:6785   */\n      dup11\n        /* \"#utility.yul\":6775:6781   */\n      dup8\n        /* \"#utility.yul\":6771:6786   */\n      add\n        /* \"#utility.yul\":6764:6791   */\n      mstore\n        /* \"#utility.yul\":6818:6866   */\n      tag_178\n        /* \"#utility.yul\":6862:6864   */\n      dup3\n        /* \"#utility.yul\":6854:6860   */\n      dup8\n        /* \"#utility.yul\":6850:6865   */\n      add\n        /* \"#utility.yul\":6836:6848   */\n      dup3\n        /* \"#utility.yul\":6818:6866   */\n      tag_120\n      jump\t// in\n    tag_178:\n        /* \"#utility.yul\":6804:6866   */\n      swap2\n      pop\n      pop\n        /* \"#utility.yul\":6915:6917   */\n      dup8\n        /* \"#utility.yul\":6911:6913   */\n      dup3\n        /* \"#utility.yul\":6907:6918   */\n      add\n        /* \"#utility.yul\":6901:6919   */\n      mload\n        /* \"#utility.yul\":6968:6974   */\n      dup6\n        /* \"#utility.yul\":6960:6966   */\n      dup3\n        /* \"#utility.yul\":6956:6975   */\n      sub\n        /* \"#utility.yul\":6951:6953   */\n      dup10\n        /* \"#utility.yul\":6943:6949   */\n      dup8\n        /* \"#utility.yul\":6939:6954   */\n      add\n        /* \"#utility.yul\":6932:6976   */\n      mstore\n        /* \"#utility.yul\":7003:7044   */\n      tag_179\n        /* \"#utility.yul\":7037:7043   */\n      dup3\n        /* \"#utility.yul\":7021:7035   */\n      dup3\n        /* \"#utility.yul\":7003:7044   */\n      tag_120\n      jump\t// in\n    tag_179:\n        /* \"#utility.yul\":7067:7071   */\n      0x60\n        /* \"#utility.yul\":7114:7125   */\n      dup5\n      dup2\n      add\n        /* \"#utility.yul\":7108:7126   */\n      mload\n        /* \"#utility.yul\":7091:7106   */\n      swap1\n      dup9\n      add\n        /* \"#utility.yul\":7084:7127   */\n      mstore\n        /* \"#utility.yul\":7150:7154   */\n      0x80\n        /* \"#utility.yul\":7197:7208   */\n      dup1\n      dup6\n      add\n        /* \"#utility.yul\":7191:7209   */\n      mload\n        /* \"#utility.yul\":7174:7189   */\n      swap1\n      dup9\n      add\n        /* \"#utility.yul\":7167:7210   */\n      mstore\n        /* \"#utility.yul\":7233:7237   */\n      0xa0\n        /* \"#utility.yul\":7280:7291   */\n      dup1\n      dup6\n      add\n        /* \"#utility.yul\":7274:7292   */\n      mload\n        /* \"#utility.yul\":7257:7272   */\n      swap1\n      dup9\n      add\n        /* \"#utility.yul\":7250:7293   */\n      mstore\n        /* \"#utility.yul\":7316:7320   */\n      0xc0\n        /* \"#utility.yul\":7361:7372   */\n      dup1\n      dup6\n      add\n        /* \"#utility.yul\":7355:7373   */\n      mload\n        /* \"#utility.yul\":7410:7429   */\n      dup9\n      dup4\n      sub\n        /* \"#utility.yul\":7393:7408   */\n      dup3\n      dup11\n      add\n        /* \"#utility.yul\":7386:7430   */\n      mstore\n        /* \"#utility.yul\":6989:7044   */\n      swap2\n      swap4\n      pop\n        /* \"#utility.yul\":7316:7320   */\n      swap2\n      pop\n        /* \"#utility.yul\":7457:7498   */\n      tag_180\n        /* \"#utility.yul\":6989:7044   */\n      dup4\n        /* \"#utility.yul\":7355:7373   */\n      dup3\n        /* \"#utility.yul\":7457:7498   */\n      tag_120\n      jump\t// in\n    tag_180:\n        /* \"#utility.yul\":7443:7498   */\n      swap3\n      pop\n      pop\n      pop\n        /* \"#utility.yul\":7521:7525   */\n      0xe0\n        /* \"#utility.yul\":7574:7576   */\n      dup1\n        /* \"#utility.yul\":7570:7572   */\n      dup4\n        /* \"#utility.yul\":7566:7577   */\n      add\n        /* \"#utility.yul\":7560:7578   */\n      mload\n        /* \"#utility.yul\":7627:7633   */\n      dup7\n        /* \"#utility.yul\":7619:7625   */\n      dup4\n        /* \"#utility.yul\":7615:7634   */\n      sub\n        /* \"#utility.yul\":7610:7612   */\n      dup3\n        /* \"#utility.yul\":7602:7608   */\n      dup9\n        /* \"#utility.yul\":7598:7613   */\n      add\n        /* \"#utility.yul\":7591:7635   */\n      mstore\n        /* \"#utility.yul\":7662:7714   */\n      tag_181\n        /* \"#utility.yul\":7707:7713   */\n      dup4\n        /* \"#utility.yul\":7691:7705   */\n      dup3\n        /* \"#utility.yul\":7662:7714   */\n      tag_122\n      jump\t// in\n    tag_181:\n        /* \"#utility.yul\":7648:7714   */\n      swap3\n      pop\n      pop\n      pop\n        /* \"#utility.yul\":7738:7744   */\n      0x0100\n        /* \"#utility.yul\":7793:7796   */\n      dup1\n        /* \"#utility.yul\":7789:7791   */\n      dup4\n        /* \"#utility.yul\":7785:7797   */\n      add\n        /* \"#utility.yul\":7779:7798   */\n      mload\n        /* \"#utility.yul\":7757:7798   */\n      swap3\n      pop\n        /* \"#utility.yul\":7848:7854   */\n      dup6\n        /* \"#utility.yul\":7840:7846   */\n      dup3\n        /* \"#utility.yul\":7836:7855   */\n      sub\n        /* \"#utility.yul\":7830:7833   */\n      dup2\n        /* \"#utility.yul\":7822:7828   */\n      dup8\n        /* \"#utility.yul\":7818:7834   */\n      add\n        /* \"#utility.yul\":7811:7856   */\n      mstore\n      pop\n        /* \"#utility.yul\":7879:7931   */\n      tag_182\n        /* \"#utility.yul\":7924:7930   */\n      dup2\n        /* \"#utility.yul\":7908:7922   */\n      dup4\n        /* \"#utility.yul\":7879:7931   */\n      tag_123\n      jump\t// in\n    tag_182:\n        /* \"#utility.yul\":7989:8001   */\n      swap7\n      dup10\n      add\n      swap7\n        /* \"#utility.yul\":7869:7931   */\n      swap5\n      pop\n      pop\n      pop\n        /* \"#utility.yul\":7954:7969   */\n      swap1\n      dup7\n      add\n      swap1\n        /* \"#utility.yul\":6509:6510   */\n      0x01\n        /* \"#utility.yul\":6502:6511   */\n      add\n        /* \"#utility.yul\":6473:8011   */\n      jump(tag_174)\n    tag_176:\n      pop\n        /* \"#utility.yul\":8028:8034   */\n      swap1\n      swap9\n        /* \"#utility.yul\":5905:8040   */\n      swap8\n      pop\n      pop\n      pop\n      pop\n      pop\n      pop\n      pop\n      pop\n      jump\t// out\n        /* \"#utility.yul\":8045:8425   */\n    tag_47:\n        /* \"#utility.yul\":8124:8125   */\n      0x01\n        /* \"#utility.yul\":8120:8132   */\n      dup2\n      dup2\n      shr\n      swap1\n        /* \"#utility.yul\":8167:8179   */\n      dup3\n      and\n      dup1\n        /* \"#utility.yul\":8188:8249   */\n      tag_184\n      jumpi\n        /* \"#utility.yul\":8242:8246   */\n      0x7f\n        /* \"#utility.yul\":8234:8240   */\n      dup3\n        /* \"#utility.yul\":8230:8247   */\n      and\n        /* \"#utility.yul\":8220:8247   */\n      swap2\n      pop\n        /* \"#utility.yul\":8188:8249   */\n    tag_184:\n        /* \"#utility.yul\":8295:8297   */\n      0x20\n        /* \"#utility.yul\":8287:8293   */\n      dup3\n        /* \"#utility.yul\":8284:8298   */\n      lt\n        /* \"#utility.yul\":8264:8282   */\n      dup2\n        /* \"#utility.yul\":8261:8299   */\n      sub\n        /* \"#utility.yul\":8258:8419   */\n      tag_94\n      jumpi\n        /* \"#utility.yul\":8341:8351   */\n      0x4e487b71\n        /* \"#utility.yul\":8336:8339   */\n      0xe0\n        /* \"#utility.yul\":8332:8352   */\n      shl\n        /* \"#utility.yul\":8329:8330   */\n      0x00\n        /* \"#utility.yul\":8322:8353   */\n      mstore\n        /* \"#utility.yul\":8376:8380   */\n      0x22\n        /* \"#utility.yul\":8373:8374   */\n      0x04\n        /* \"#utility.yul\":8366:8381   */\n      mstore\n        /* \"#utility.yul\":8404:8408   */\n      0x24\n        /* \"#utility.yul\":8401:8402   */\n      0x00\n        /* \"#utility.yul\":8394:8409   */\n      revert\n        /* \"#utility.yul\":8640:8767   */\n    tag_124:\n        /* \"#utility.yul\":8701:8711   */\n      0x4e487b71\n        /* \"#utility.yul\":8696:8699   */\n      0xe0\n        /* \"#utility.yul\":8692:8712   */\n      shl\n        /* \"#utility.yul\":8689:8690   */\n      0x00\n        /* \"#utility.yul\":8682:8713   */\n      mstore\n        /* \"#utility.yul\":8732:8736   */\n      0x11\n        /* \"#utility.yul\":8729:8730   */\n      0x04\n        /* \"#utility.yul\":8722:8737   */\n      mstore\n        /* \"#utility.yul\":8756:8760   */\n      0x24\n        /* \"#utility.yul\":8753:8754   */\n      0x00\n        /* \"#utility.yul\":8746:8761   */\n      revert\n        /* \"#utility.yul\":8772:8897   */\n    tag_72:\n        /* \"#utility.yul\":8837:8846   */\n      dup1\n      dup3\n      add\n        /* \"#utility.yul\":8858:8868   */\n      dup1\n      dup3\n      gt\n        /* \"#utility.yul\":8855:8891   */\n      iszero\n      tag_190\n      jumpi\n        /* \"#utility.yul\":8871:8889   */\n      tag_190\n      tag_124\n      jump\t// in\n    tag_190:\n        /* \"#utility.yul\":8772:8897   */\n      swap3\n      swap2\n      pop\n      pop\n      jump\t// out\n        /* \"#utility.yul\":9436:9981   */\n    tag_126:\n        /* \"#utility.yul\":9538:9540   */\n      0x1f\n        /* \"#utility.yul\":9533:9536   */\n      dup3\n        /* \"#utility.yul\":9530:9541   */\n      gt\n        /* \"#utility.yul\":9527:9975   */\n      iszero\n      tag_194\n      jumpi\n        /* \"#utility.yul\":9574:9575   */\n      0x00\n        /* \"#utility.yul\":9599:9604   */\n      dup2\n        /* \"#utility.yul\":9595:9597   */\n      dup2\n        /* \"#utility.yul\":9588:9605   */\n      mstore\n        /* \"#utility.yul\":9644:9648   */\n      0x20\n        /* \"#utility.yul\":9640:9642   */\n      dup2\n        /* \"#utility.yul\":9630:9649   */\n      keccak256\n        /* \"#utility.yul\":9714:9716   */\n      0x1f\n        /* \"#utility.yul\":9702:9712   */\n      dup6\n        /* \"#utility.yul\":9698:9717   */\n      add\n        /* \"#utility.yul\":9695:9696   */\n      0x05\n        /* \"#utility.yul\":9691:9718   */\n      shr\n        /* \"#utility.yul\":9685:9689   */\n      dup2\n        /* \"#utility.yul\":9681:9719   */\n      add\n        /* \"#utility.yul\":9750:9754   */\n      0x20\n        /* \"#utility.yul\":9738:9748   */\n      dup7\n        /* \"#utility.yul\":9735:9755   */\n      lt\n        /* \"#utility.yul\":9732:9779   */\n      iszero\n      tag_195\n      jumpi\n      pop\n        /* \"#utility.yul\":9773:9777   */\n      dup1\n        /* \"#utility.yul\":9732:9779   */\n    tag_195:\n        /* \"#utility.yul\":9828:9830   */\n      0x1f\n        /* \"#utility.yul\":9823:9826   */\n      dup6\n        /* \"#utility.yul\":9819:9831   */\n      add\n        /* \"#utility.yul\":9816:9817   */\n      0x05\n        /* \"#utility.yul\":9812:9832   */\n      shr\n        /* \"#utility.yul\":9806:9810   */\n      dup3\n        /* \"#utility.yul\":9802:9833   */\n      add\n        /* \"#utility.yul\":9792:9833   */\n      swap2\n      pop\n        /* \"#utility.yul\":9883:9965   */\n    tag_196:\n        /* \"#utility.yul\":9901:9903   */\n      dup2\n        /* \"#utility.yul\":9894:9899   */\n      dup2\n        /* \"#utility.yul\":9891:9904   */\n      lt\n        /* \"#utility.yul\":9883:9965   */\n      iszero\n      tag_198\n      jumpi\n        /* \"#utility.yul\":9946:9963   */\n      dup3\n      dup2\n      sstore\n        /* \"#utility.yul\":9927:9928   */\n      0x01\n        /* \"#utility.yul\":9916:9929   */\n      add\n        /* \"#utility.yul\":9883:9965   */\n      jump(tag_196)\n    tag_198:\n        /* \"#utility.yul\":9887:9890   */\n      pop\n      pop\n      pop\n        /* \"#utility.yul\":9527:9975   */\n    tag_194:\n        /* \"#utility.yul\":9436:9981   */\n      pop\n      pop\n      pop\n      jump\t// out\n        /* \"#utility.yul\":10157:11509   */\n    tag_78:\n        /* \"#utility.yul\":10283:10286   */\n      dup2\n        /* \"#utility.yul\":10277:10287   */\n      mload\n        /* \"#utility.yul\":10310:10328   */\n      0xffffffffffffffff\n        /* \"#utility.yul\":10302:10308   */\n      dup2\n        /* \"#utility.yul\":10299:10329   */\n      gt\n        /* \"#utility.yul\":10296:10352   */\n      iszero\n      tag_202\n      jumpi\n        /* \"#utility.yul\":10332:10350   */\n      tag_202\n      tag_88\n      jump\t// in\n    tag_202:\n        /* \"#utility.yul\":10361:10458   */\n      tag_203\n        /* \"#utility.yul\":10451:10457   */\n      dup2\n        /* \"#utility.yul\":10411:10449   */\n      tag_204\n        /* \"#utility.yul\":10443:10447   */\n      dup5\n        /* \"#utility.yul\":10437:10448   */\n      sload\n        /* \"#utility.yul\":10411:10449   */\n      tag_47\n      jump\t// in\n    tag_204:\n        /* \"#utility.yul\":10405:10409   */\n      dup5\n        /* \"#utility.yul\":10361:10458   */\n      tag_126\n      jump\t// in\n    tag_203:\n        /* \"#utility.yul\":10513:10517   */\n      0x20\n      dup1\n        /* \"#utility.yul\":10577:10579   */\n      0x1f\n        /* \"#utility.yul\":10566:10580   */\n      dup4\n      gt\n        /* \"#utility.yul\":10594:10595   */\n      0x01\n        /* \"#utility.yul\":10589:11252   */\n      dup2\n      eq\n      tag_206\n      jumpi\n        /* \"#utility.yul\":11296:11297   */\n      0x00\n        /* \"#utility.yul\":11313:11319   */\n      dup5\n        /* \"#utility.yul\":11310:11399   */\n      iszero\n      tag_207\n      jumpi\n      pop\n        /* \"#utility.yul\":11365:11384   */\n      dup6\n      dup4\n      add\n        /* \"#utility.yul\":11359:11385   */\n      mload\n        /* \"#utility.yul\":11310:11399   */\n    tag_207:\n      not(0x00)\n        /* \"#utility.yul\":10114:10115   */\n      0x03\n        /* \"#utility.yul\":10110:10121   */\n      dup7\n      swap1\n      shl\n        /* \"#utility.yul\":10106:10130   */\n      shr\n        /* \"#utility.yul\":10102:10131   */\n      not\n        /* \"#utility.yul\":10092:10132   */\n      and\n        /* \"#utility.yul\":10138:10139   */\n      0x01\n        /* \"#utility.yul\":10134:10145   */\n      dup6\n      swap1\n      shl\n        /* \"#utility.yul\":10089:10146   */\n      or\n        /* \"#utility.yul\":11412:11493   */\n      dup6\n      sstore\n        /* \"#utility.yul\":10559:11503   */\n      jump(tag_198)\n        /* \"#utility.yul\":10589:11252   */\n    tag_206:\n        /* \"#utility.yul\":9383:9384   */\n      0x00\n        /* \"#utility.yul\":9376:9390   */\n      dup6\n      dup2\n      mstore\n        /* \"#utility.yul\":9420:9424   */\n      0x20\n        /* \"#utility.yul\":9407:9425   */\n      dup2\n      keccak256\n      not(0x1f)\n        /* \"#utility.yul\":10625:10645   */\n      dup7\n      and\n      swap2\n        /* \"#utility.yul\":10743:10979   */\n    tag_210:\n        /* \"#utility.yul\":10757:10764   */\n      dup3\n        /* \"#utility.yul\":10754:10755   */\n      dup2\n        /* \"#utility.yul\":10751:10765   */\n      lt\n        /* \"#utility.yul\":10743:10979   */\n      iszero\n      tag_212\n      jumpi\n        /* \"#utility.yul\":10846:10865   */\n      dup9\n      dup7\n      add\n        /* \"#utility.yul\":10840:10866   */\n      mload\n        /* \"#utility.yul\":10825:10867   */\n      dup3\n      sstore\n        /* \"#utility.yul\":10938:10965   */\n      swap5\n      dup5\n      add\n      swap5\n        /* \"#utility.yul\":10906:10907   */\n      0x01\n        /* \"#utility.yul\":10894:10908   */\n      swap1\n      swap2\n      add\n      swap1\n        /* \"#utility.yul\":10773:10792   */\n      dup5\n      add\n        /* \"#utility.yul\":10743:10979   */\n      jump(tag_210)\n    tag_212:\n        /* \"#utility.yul\":10747:10750   */\n      pop\n        /* \"#utility.yul\":11007:11013   */\n      dup6\n        /* \"#utility.yul\":10998:11005   */\n      dup3\n        /* \"#utility.yul\":10995:11014   */\n      lt\n        /* \"#utility.yul\":10992:11193   */\n      iszero\n      tag_213\n      jumpi\n        /* \"#utility.yul\":11068:11087   */\n      dup8\n      dup6\n      add\n        /* \"#utility.yul\":11062:11088   */\n      mload\n      not(0x00)\n        /* \"#utility.yul\":11151:11152   */\n      0x03\n        /* \"#utility.yul\":11147:11161   */\n      dup9\n      swap1\n      shl\n        /* \"#utility.yul\":11163:11166   */\n      0xf8\n        /* \"#utility.yul\":11143:11167   */\n      and\n        /* \"#utility.yul\":11139:11176   */\n      shr\n        /* \"#utility.yul\":11135:11177   */\n      not\n        /* \"#utility.yul\":11120:11178   */\n      and\n        /* \"#utility.yul\":11105:11179   */\n      dup2\n      sstore\n        /* \"#utility.yul\":10992:11193   */\n    tag_213:\n      pop\n      pop\n      pop\n      pop\n      pop\n        /* \"#utility.yul\":11239:11240   */\n      0x01\n        /* \"#utility.yul\":11223:11237   */\n      swap1\n      dup2\n      shl\n        /* \"#utility.yul\":11219:11241   */\n      add\n        /* \"#utility.yul\":11206:11242   */\n      swap1\n      sstore\n      pop\n        /* \"#utility.yul\":10157:11509   */\n      jump\t// out\n        /* \"#utility.yul\":11514:11649   */\n    tag_82:\n        /* \"#utility.yul\":11553:11556   */\n      0x00\n        /* \"#utility.yul\":11574:11591   */\n      0x01\n      dup3\n      add\n        /* \"#utility.yul\":11571:11614   */\n      tag_216\n      jumpi\n        /* \"#utility.yul\":11594:11612   */\n      tag_216\n      tag_124\n      jump\t// in\n    tag_216:\n      pop\n        /* \"#utility.yul\":11641:11642   */\n      0x01\n        /* \"#utility.yul\":11630:11643   */\n      add\n      swap1\n        /* \"#utility.yul\":11514:11649   */\n      jump\t// out\n        /* \"#utility.yul\":11654:11782   */\n    tag_84:\n        /* \"#utility.yul\":11721:11730   */\n      dup2\n      dup2\n      sub\n        /* \"#utility.yul\":11742:11753   */\n      dup2\n      dup2\n      gt\n        /* \"#utility.yul\":11739:11776   */\n      iszero\n      tag_190\n      jumpi\n        /* \"#utility.yul\":11756:11774   */\n      tag_190\n      tag_124\n      jump\t// in\n        /* \"#utility.yul\":11787:11914   */\n    tag_117:\n        /* \"#utility.yul\":11848:11858   */\n      0x4e487b71\n        /* \"#utility.yul\":11843:11846   */\n      0xe0\n        /* \"#utility.yul\":11839:11859   */\n      shl\n        /* \"#utility.yul\":11836:11837   */\n      0x00\n        /* \"#utility.yul\":11829:11860   */\n      mstore\n        /* \"#utility.yul\":11879:11883   */\n      0x32\n        /* \"#utility.yul\":11876:11877   */\n      0x04\n        /* \"#utility.yul\":11869:11884   */\n      mstore\n        /* \"#utility.yul\":11903:11907   */\n      0x24\n        /* \"#utility.yul\":11900:11901   */\n      0x00\n        /* \"#utility.yul\":11893:11908   */\n      revert\n\n    auxdata: 0xa2646970667358221220a7b0943d65dc1f82fe1f7d60d7df2d8d11de40754095769ed71673ba056763f164736f6c63430008110033\n}\n",
    "bytecode": {
      "linkReferences": {},
      "object": "6080604052600060015534801561001557600080fd5b50610faa806100256000396000f3fe6080604052600436106100655760003560e01c80638ffff8b0116100435780638ffff8b0146100f45780639943e3a114610109578063a6b036331461012957600080fd5b806307ca140d1461006a5780630fa91fa914610093578063141961bc146100c1575b600080fd5b34801561007657600080fd5b5061008060015481565b6040519081526020015b60405180910390f35b34801561009f57600080fd5b506100b36100ae366004610998565b61014b565b60405161008a9291906109b1565b3480156100cd57600080fd5b506100e16100dc366004610998565b61021a565b60405161008a9796959493929190610a7b565b610107610102366004610998565b6103f7565b005b34801561011557600080fd5b50610080610124366004610b86565b6104c6565b34801561013557600080fd5b5061013e6105eb565b60405161008a9190610cb3565b600081815260208181526040918290206007810180548451818502810185019095528085526060948594929360080192909184918301828280156101b857602002820191906000526020600020905b81546001600160a01b0316815260019091019060200180831161019a575b505050505091508080548060200260200160405190810160405280929190818152602001828054801561020a57602002820191906000526020600020905b8154815260200190600101908083116101f6575b5050505050905091509150915091565b600060208190529081526040902080546001820180546001600160a01b03909216929161024690610dc0565b80601f016020809104026020016040519081016040528092919081815260200182805461027290610dc0565b80156102bf5780601f10610294576101008083540402835291602001916102bf565b820191906000526020600020905b8154815290600101906020018083116102a257829003601f168201915b5050505050908060020180546102d490610dc0565b80601f016020809104026020016040519081016040528092919081815260200182805461030090610dc0565b801561034d5780601f106103225761010080835404028352916020019161034d565b820191906000526020600020905b81548152906001019060200180831161033057829003601f168201915b50505050509080600301549080600401549080600501549080600601805461037490610dc0565b80601f01602080910402602001604051908101604052809291908181526020018280546103a090610dc0565b80156103ed5780601f106103c2576101008083540402835291602001916103ed565b820191906000526020600020905b8154815290600101906020018083116103d057829003601f168201915b5050505050905087565b6000818152602081815260408083206007810180546001808201835591865284862001805473ffffffffffffffffffffffffffffffffffffffff19163317905560088201805491820181558552928420349301839055805491519293909290916001600160a01b03169084908381818185875af1925050503d806000811461049b576040519150601f19603f3d011682016040523d82523d6000602084013e6104a0565b606091505b5050905080156104c0578282600501546104ba9190610e0a565b60058301555b50505050565b6001546000908152602081905260408120600481015442116105545760405162461bcd60e51b815260206004820152602760248201527f54686520646561646c696e652073686f756c642062652061206461746520696e60448201527f2066757475726500000000000000000000000000000000000000000000000000606482015260840160405180910390fd5b805473ffffffffffffffffffffffffffffffffffffffff19166001600160a01b038916178155600181016105888882610e72565b50600381018590556002810161059e8782610e72565b506004810184905560006005820155600681016105bb8482610e72565b50600180549060006105cc83610f32565b9190505550600180546105df9190610f4b565b98975050505050505050565b6060600060015467ffffffffffffffff81111561060a5761060a610ae3565b60405190808252806020026020018201604052801561069357816020015b61068060405180610120016040528060006001600160a01b0316815260200160608152602001606081526020016000815260200160008152602001600081526020016060815260200160608152602001606081525090565b8152602001906001900390816106285790505b50905060005b60015481101561099257600081815260208181526040918290208251610120810190935280546001600160a01b03168352600181018054919392849290840191906106e390610dc0565b80601f016020809104026020016040519081016040528092919081815260200182805461070f90610dc0565b801561075c5780601f106107315761010080835404028352916020019161075c565b820191906000526020600020905b81548152906001019060200180831161073f57829003601f168201915b5050505050815260200160028201805461077590610dc0565b80601f01602080910402602001604051908101604052809291908181526020018280546107a190610dc0565b80156107ee5780601f106107c3576101008083540402835291602001916107ee565b820191906000526020600020905b8154815290600101906020018083116107d157829003601f168201915b5050505050815260200160038201548152602001600482015481526020016005820154815260200160068201805461082590610dc0565b80601f016020809104026020016040519081016040528092919081815260200182805461085190610dc0565b801561089e5780601f106108735761010080835404028352916020019161089e565b820191906000526020600020905b81548152906001019060200180831161088157829003601f168201915b505050505081526020016007820180548060200260200160405190810160405280929190818152602001828054801561090057602002820191906000526020600020905b81546001600160a01b031681526001909101906020018083116108e2575b505050505081526020016008820180548060200260200160405190810160405280929190818152602001828054801561095857602002820191906000526020600020905b815481526020019060010190808311610944575b50505050508152505083838151811061097357610973610f5e565b602002602001018190525050808061098a90610f32565b915050610699565b50919050565b6000602082840312156109aa57600080fd5b5035919050565b604080825283519082018190526000906020906060840190828701845b828110156109f35781516001600160a01b0316845292840192908401906001016109ce565b5050508381038285015284518082528583019183019060005b81811015610a2857835183529284019291840191600101610a0c565b5090979650505050505050565b6000815180845260005b81811015610a5b57602081850181015186830182015201610a3f565b506000602082860101526020601f19601f83011685010191505092915050565b6001600160a01b038816815260e060208201526000610a9d60e0830189610a35565b8281036040840152610aaf8189610a35565b90508660608401528560808401528460a084015282810360c0840152610ad58185610a35565b9a9950505050505050505050565b634e487b7160e01b600052604160045260246000fd5b600082601f830112610b0a57600080fd5b813567ffffffffffffffff80821115610b2557610b25610ae3565b604051601f8301601f19908116603f01168101908282118183101715610b4d57610b4d610ae3565b81604052838152866020858801011115610b6657600080fd5b836020870160208301376000602085830101528094505050505092915050565b60008060008060008060c08789031215610b9f57600080fd5b86356001600160a01b0381168114610bb657600080fd5b9550602087013567ffffffffffffffff80821115610bd357600080fd5b610bdf8a838b01610af9565b96506040890135915080821115610bf557600080fd5b610c018a838b01610af9565b9550606089013594506080890135935060a0890135915080821115610c2557600080fd5b50610c3289828a01610af9565b9150509295509295509295565b600081518084526020808501945080840160005b83811015610c785781516001600160a01b031687529582019590820190600101610c53565b509495945050505050565b600081518084526020808501945080840160005b83811015610c7857815187529582019590820190600101610c97565b60006020808301818452808551808352604092508286019150828160051b87010184880160005b83811015610db257888303603f19018552815180516001600160a01b0316845261012088820151818a870152610d1282870182610a35565b9150508782015185820389870152610d2a8282610a35565b606084810151908801526080808501519088015260a0808501519088015260c080850151888303828a01529193509150610d648382610a35565b9250505060e08083015186830382880152610d7f8382610c3f565b925050506101008083015192508582038187015250610d9e8183610c83565b968901969450505090860190600101610cda565b509098975050505050505050565b600181811c90821680610dd457607f821691505b60208210810361099257634e487b7160e01b600052602260045260246000fd5b634e487b7160e01b600052601160045260246000fd5b80820180821115610e1d57610e1d610df4565b92915050565b601f821115610e6d57600081815260208120601f850160051c81016020861015610e4a5750805b601f850160051c820191505b81811015610e6957828155600101610e56565b5050505b505050565b815167ffffffffffffffff811115610e8c57610e8c610ae3565b610ea081610e9a8454610dc0565b84610e23565b602080601f831160018114610ed55760008415610ebd5750858301515b600019600386901b1c1916600185901b178555610e69565b600085815260208120601f198616915b82811015610f0457888601518255948401946001909101908401610ee5565b5085821015610f225787850151600019600388901b60f8161c191681555b5050505050600190811b01905550565b600060018201610f4457610f44610df4565b5060010190565b81810381811115610e1d57610e1d610df4565b634e487b7160e01b600052603260045260246000fdfea2646970667358221220a7b0943d65dc1f82fe1f7d60d7df2d8d11de40754095769ed71673ba056763f164736f6c63430008110033",
      "opcodes": "PUSH1 0x80 PUSH1 0x40 MSTORE PUSH1 0x0 PUSH1 0x1 SSTORE CALLVALUE DUP1 ISZERO PUSH2 0x15 JUMPI PUSH1 0x0 DUP1 REVERT JUMPDEST POP PUSH2 0xFAA DUP1 PUSH2 0x25 PUSH1 0x0 CODECOPY PUSH1 0x0 RETURN INVALID PUSH1 0x80 PUSH1 0x40 MSTORE PUSH1 0x4 CALLDATASIZE LT PUSH2 0x65 JUMPI PUSH1 0x0 CALLDATALOAD PUSH1 0xE0 SHR DUP1 PUSH4 0x8FFFF8B0 GT PUSH2 0x43 JUMPI DUP1 PUSH4 0x8FFFF8B0 EQ PUSH2 0xF4 JUMPI DUP1 PUSH4 0x9943E3A1 EQ PUSH2 0x109 JUMPI DUP1 PUSH4 0xA6B03633 EQ PUSH2 0x129 JUMPI PUSH1 0x0 DUP1 REVERT JUMPDEST DUP1 PUSH4 0x7CA140D EQ PUSH2 0x6A JUMPI DUP1 PUSH4 0xFA91FA9 EQ PUSH2 0x93 JUMPI DUP1 PUSH4 0x141961BC EQ PUSH2 0xC1 JUMPI JUMPDEST PUSH1 0x0 DUP1 REVERT JUMPDEST CALLVALUE DUP1 ISZERO PUSH2 0x76 JUMPI PUSH1 0x0 DUP1 REVERT JUMPDEST POP PUSH2 0x80 PUSH1 0x1 SLOAD DUP2 JUMP JUMPDEST PUSH1 0x40 MLOAD SWAP1 DUP2 MSTORE PUSH1 0x20 ADD JUMPDEST PUSH1 0x40 MLOAD DUP1 SWAP2 SUB SWAP1 RETURN JUMPDEST CALLVALUE DUP1 ISZERO PUSH2 0x9F JUMPI PUSH1 0x0 DUP1 REVERT JUMPDEST POP PUSH2 0xB3 PUSH2 0xAE CALLDATASIZE PUSH1 0x4 PUSH2 0x998 JUMP JUMPDEST PUSH2 0x14B JUMP JUMPDEST PUSH1 0x40 MLOAD PUSH2 0x8A SWAP3 SWAP2 SWAP1 PUSH2 0x9B1 JUMP JUMPDEST CALLVALUE DUP1 ISZERO PUSH2 0xCD JUMPI PUSH1 0x0 DUP1 REVERT JUMPDEST POP PUSH2 0xE1 PUSH2 0xDC CALLDATASIZE PUSH1 0x4 PUSH2 0x998 JUMP JUMPDEST PUSH2 0x21A JUMP JUMPDEST PUSH1 0x40 MLOAD PUSH2 0x8A SWAP8 SWAP7 SWAP6 SWAP5 SWAP4 SWAP3 SWAP2 SWAP1 PUSH2 0xA7B JUMP JUMPDEST PUSH2 0x107 PUSH2 0x102 CALLDATASIZE PUSH1 0x4 PUSH2 0x998 JUMP JUMPDEST PUSH2 0x3F7 JUMP JUMPDEST STOP JUMPDEST CALLVALUE DUP1 ISZERO PUSH2 0x115 JUMPI PUSH1 0x0 DUP1 REVERT JUMPDEST POP PUSH2 0x80 PUSH2 0x124 CALLDATASIZE PUSH1 0x4 PUSH2 0xB86 JUMP JUMPDEST PUSH2 0x4C6 JUMP JUMPDEST CALLVALUE DUP1 ISZERO PUSH2 0x135 JUMPI PUSH1 0x0 DUP1 REVERT JUMPDEST POP PUSH2 0x13E PUSH2 0x5EB JUMP JUMPDEST PUSH1 0x40 MLOAD PUSH2 0x8A SWAP2 SWAP1 PUSH2 0xCB3 JUMP JUMPDEST PUSH1 0x0 DUP2 DUP2 MSTORE PUSH1 0x20 DUP2 DUP2 MSTORE PUSH1 0x40 SWAP2 DUP3 SWAP1 KECCAK256 PUSH1 0x7 DUP2 ADD DUP1 SLOAD DUP5 MLOAD DUP2 DUP6 MUL DUP2 ADD DUP6 ADD SWAP1 SWAP6 MSTORE DUP1 DUP6 MSTORE PUSH1 0x60 SWAP5 DUP6 SWAP5 SWAP3 SWAP4 PUSH1 0x8 ADD SWAP3 SWAP1 SWAP2 DUP5 SWAP2 DUP4 ADD DUP3 DUP3 DUP1 ISZERO PUSH2 0x1B8 JUMPI PUSH1 0x20 MUL DUP3 ADD SWAP2 SWAP1 PUSH1 0x0 MSTORE PUSH1 0x20 PUSH1 0x0 KECCAK256 SWAP1 JUMPDEST DUP2 SLOAD PUSH1 0x1 PUSH1 0x1 PUSH1 0xA0 SHL SUB AND DUP2 MSTORE PUSH1 0x1 SWAP1 SWAP2 ADD SWAP1 PUSH1 0x20 ADD DUP1 DUP4 GT PUSH2 0x19A JUMPI JUMPDEST POP POP POP POP POP SWAP2 POP DUP1 DUP1 SLOAD DUP1 PUSH1 0x20 MUL PUSH1 0x20 ADD PUSH1 0x40 MLOAD SWAP1 DUP2 ADD PUSH1 0x40 MSTORE DUP1 SWAP3 SWAP2 SWAP1 DUP2 DUP2 MSTORE PUSH1 0x20 ADD DUP3 DUP1 SLOAD DUP1 ISZERO PUSH2 0x20A JUMPI PUSH1 0x20 MUL DUP3 ADD SWAP2 SWAP1 PUSH1 0x0 MSTORE PUSH1 0x20 PUSH1 0x0 KECCAK256 SWAP1 JUMPDEST DUP2 SLOAD DUP2 MSTORE PUSH1 0x20 ADD SWAP1 PUSH1 0x1 ADD SWAP1 DUP1 DUP4 GT PUSH2 0x1F6 JUMPI JUMPDEST POP POP POP POP POP SWAP1 POP SWAP2 POP SWAP2 POP SWAP2 POP SWAP2 JUMP JUMPDEST PUSH1 0x0 PUSH1 0x20 DUP2 SWAP1 MSTORE SWAP1 DUP2 MSTORE PUSH1 0x40 SWAP1 KECCAK256 DUP1 SLOAD PUSH1 0x1 DUP3 ADD DUP1 SLOAD PUSH1 0x1 PUSH1 0x1 PUSH1 0xA0 SHL SUB SWAP1 SWAP3 AND SWAP3 SWAP2 PUSH2 0x246 SWAP1 PUSH2 0xDC0 JUMP JUMPDEST DUP1 PUSH1 0x1F ADD PUSH1 0x20 DUP1 SWAP2 DIV MUL PUSH1 0x20 ADD PUSH1 0x40 MLOAD SWAP1 DUP2 ADD PUSH1 0x40 MSTORE DUP1 SWAP3 SWAP2 SWAP1 DUP2 DUP2 MSTORE PUSH1 0x20 ADD DUP3 DUP1 SLOAD PUSH2 0x272 SWAP1 PUSH2 0xDC0 JUMP JUMPDEST DUP1 ISZERO PUSH2 0x2BF JUMPI DUP1 PUSH1 0x1F LT PUSH2 0x294 JUMPI PUSH2 0x100 DUP1 DUP4 SLOAD DIV MUL DUP4 MSTORE SWAP2 PUSH1 0x20 ADD SWAP2 PUSH2 0x2BF JUMP JUMPDEST DUP3 ADD SWAP2 SWAP1 PUSH1 0x0 MSTORE PUSH1 0x20 PUSH1 0x0 KECCAK256 SWAP1 JUMPDEST DUP2 SLOAD DUP2 MSTORE SWAP1 PUSH1 0x1 ADD SWAP1 PUSH1 0x20 ADD DUP1 DUP4 GT PUSH2 0x2A2 JUMPI DUP3 SWAP1 SUB PUSH1 0x1F AND DUP3 ADD SWAP2 JUMPDEST POP POP POP POP POP SWAP1 DUP1 PUSH1 0x2 ADD DUP1 SLOAD PUSH2 0x2D4 SWAP1 PUSH2 0xDC0 JUMP JUMPDEST DUP1 PUSH1 0x1F ADD PUSH1 0x20 DUP1 SWAP2 DIV MUL PUSH1 0x20 ADD PUSH1 0x40 MLOAD SWAP1 DUP2 ADD PUSH1 0x40 MSTORE DUP1 SWAP3 SWAP2 SWAP1 DUP2 DUP2 MSTORE PUSH1 0x20 ADD DUP3 DUP1 SLOAD PUSH2 0x300 SWAP1 PUSH2 0xDC0 JUMP JUMPDEST DUP1 ISZERO PUSH2 0x34D JUMPI DUP1 PUSH1 0x1F LT PUSH2 0x322 JUMPI PUSH2 0x100 DUP1 DUP4 SLOAD DIV MUL DUP4 MSTORE SWAP2 PUSH1 0x20 ADD SWAP2 PUSH2 0x34D JUMP JUMPDEST DUP3 ADD SWAP2 SWAP1 PUSH1 0x0 MSTORE PUSH1 0x20 PUSH1 0x0 KECCAK256 SWAP1 JUMPDEST DUP2 SLOAD DUP2 MSTORE SWAP1 PUSH1 0x1 ADD SWAP1 PUSH1 0x20 ADD DUP1 DUP4 GT PUSH2 0x330 JUMPI DUP3 SWAP1 SUB PUSH1 0x1F AND DUP3 ADD SWAP2 JUMPDEST POP POP POP POP POP SWAP1 DUP1 PUSH1 0x3 ADD SLOAD SWAP1 DUP1 PUSH1 0x4 ADD SLOAD SWAP1 DUP1 PUSH1 0x5 ADD SLOAD SWAP1 DUP1 PUSH1 0x6 ADD DUP1 SLOAD PUSH2 0x374 SWAP1 PUSH2 0xDC0 JUMP JUMPDEST DUP1 PUSH1 0x1F ADD PUSH1 0x20 DUP1 SWAP2 DIV MUL PUSH1 0x20 ADD PUSH1 0x40 MLOAD SWAP1 DUP2 ADD PUSH1 0x40 MSTORE DUP1 SWAP3 SWAP2 SWAP1 DUP2 DUP2 MSTORE PUSH1 0x20 ADD DUP3 DUP1 SLOAD PUSH2 0x3A0 SWAP1 PUSH2 0xDC0 JUMP JUMPDEST DUP1 ISZERO PUSH2 0x3ED JUMPI DUP1 PUSH1 0x1F LT PUSH2 0x3C2 JUMPI PUSH2 0x100 DUP1 DUP4 SLOAD DIV MUL DUP4 MSTORE SWAP2 PUSH1 0x20 ADD SWAP2 PUSH2 0x3ED JUMP JUMPDEST DUP3 ADD SWAP2 SWAP1 PUSH1 0x0 MSTORE PUSH1 0x20 PUSH1 0x0 KECCAK256 SWAP1 JUMPDEST DUP2 SLOAD DUP2 MSTORE SWAP1 PUSH1 0x1 ADD SWAP1 PUSH1 0x20 ADD DUP1 DUP4 GT PUSH2 0x3D0 JUMPI DUP3 SWAP1 SUB PUSH1 0x1F AND DUP3 ADD SWAP2 JUMPDEST POP POP POP POP POP SWAP1 POP DUP8 JUMP JUMPDEST PUSH1 0x0 DUP2 DUP2 MSTORE PUSH1 0x20 DUP2 DUP2 MSTORE PUSH1 0x40 DUP1 DUP4 KECCAK256 PUSH1 0x7 DUP2 ADD DUP1 SLOAD PUSH1 0x1 DUP1 DUP3 ADD DUP4 SSTORE SWAP2 DUP7 MSTORE DUP5 DUP7 KECCAK256 ADD DUP1 SLOAD PUSH20 0xFFFFFFFFFFFFFFFFFFFFFFFFFFFFFFFFFFFFFFFF NOT AND CALLER OR SWAP1 SSTORE PUSH1 0x8 DUP3 ADD DUP1 SLOAD SWAP2 DUP3 ADD DUP2 SSTORE DUP6 MSTORE SWAP3 DUP5 KECCAK256 CALLVALUE SWAP4 ADD DUP4 SWAP1 SSTORE DUP1 SLOAD SWAP2 MLOAD SWAP3 SWAP4 SWAP1 SWAP3 SWAP1 SWAP2 PUSH1 0x1 PUSH1 0x1 PUSH1 0xA0 SHL SUB AND SWAP1 DUP5 SWAP1 DUP4 DUP2 DUP2 DUP2 DUP6 DUP8 GAS CALL SWAP3 POP POP POP RETURNDATASIZE DUP1 PUSH1 0x0 DUP2 EQ PUSH2 0x49B JUMPI PUSH1 0x40 MLOAD SWAP2 POP PUSH1 0x1F NOT PUSH1 0x3F RETURNDATASIZE ADD AND DUP3 ADD PUSH1 0x40 MSTORE RETURNDATASIZE DUP3 MSTORE RETURNDATASIZE PUSH1 0x0 PUSH1 0x20 DUP5 ADD RETURNDATACOPY PUSH2 0x4A0 JUMP JUMPDEST PUSH1 0x60 SWAP2 POP JUMPDEST POP POP SWAP1 POP DUP1 ISZERO PUSH2 0x4C0 JUMPI DUP3 DUP3 PUSH1 0x5 ADD SLOAD PUSH2 0x4BA SWAP2 SWAP1 PUSH2 0xE0A JUMP JUMPDEST PUSH1 0x5 DUP4 ADD SSTORE JUMPDEST POP POP POP POP JUMP JUMPDEST PUSH1 0x1 SLOAD PUSH1 0x0 SWAP1 DUP2 MSTORE PUSH1 0x20 DUP2 SWAP1 MSTORE PUSH1 0x40 DUP2 KECCAK256 PUSH1 0x4 DUP2 ADD SLOAD TIMESTAMP GT PUSH2 0x554 JUMPI PUSH1 0x40 MLOAD PUSH3 0x461BCD PUSH1 0xE5 SHL DUP2 MSTORE PUSH1 0x20 PUSH1 0x4 DUP3 ADD MSTORE PUSH1 0x27 PUSH1 0x24 DUP3 ADD MSTORE PUSH32 0x54686520646561646C696E652073686F756C642062652061206461746520696E PUSH1 0x44 DUP3 ADD MSTORE PUSH32 0x2066757475726500000000000000000000000000000000000000000000000000 PUSH1 0x64 DUP3 ADD MSTORE PUSH1 0x84 ADD PUSH1 0x40 MLOAD DUP1 SWAP2 SUB SWAP1 REVERT JUMPDEST DUP1 SLOAD PUSH20 0xFFFFFFFFFFFFFFFFFFFFFFFFFFFFFFFFFFFFFFFF NOT AND PUSH1 0x1 PUSH1 0x1 PUSH1 0xA0 SHL SUB DUP10 AND OR DUP2 SSTORE PUSH1 0x1 DUP2 ADD PUSH2 0x588 DUP9 DUP3 PUSH2 0xE72 JUMP JUMPDEST POP PUSH1 0x3 DUP2 ADD DUP6 SWAP1 SSTORE PUSH1 0x2 DUP2 ADD PUSH2 0x59E DUP8 DUP3 PUSH2 0xE72 JUMP JUMPDEST POP PUSH1 0x4 DUP2 ADD DUP5 SWAP1 SSTORE PUSH1 0x0 PUSH1 0x5 DUP3 ADD SSTORE PUSH1 0x6 DUP2 ADD PUSH2 0x5BB DUP5 DUP3 PUSH2 0xE72 JUMP JUMPDEST POP PUSH1 0x1 DUP1 SLOAD SWAP1 PUSH1 0x0 PUSH2 0x5CC DUP4 PUSH2 0xF32 JUMP JUMPDEST SWAP2 SWAP1 POP SSTORE POP PUSH1 0x1 DUP1 SLOAD PUSH2 0x5DF SWAP2 SWAP1 PUSH2 0xF4B JUMP JUMPDEST SWAP9 SWAP8 POP POP POP POP POP POP POP POP JUMP JUMPDEST PUSH1 0x60 PUSH1 0x0 PUSH1 0x1 SLOAD PUSH8 0xFFFFFFFFFFFFFFFF DUP2 GT ISZERO PUSH2 0x60A JUMPI PUSH2 0x60A PUSH2 0xAE3 JUMP JUMPDEST PUSH1 0x40 MLOAD SWAP1 DUP1 DUP3 MSTORE DUP1 PUSH1 0x20 MUL PUSH1 0x20 ADD DUP3 ADD PUSH1 0x40 MSTORE DUP1 ISZERO PUSH2 0x693 JUMPI DUP2 PUSH1 0x20 ADD JUMPDEST PUSH2 0x680 PUSH1 0x40 MLOAD DUP1 PUSH2 0x120 ADD PUSH1 0x40 MSTORE DUP1 PUSH1 0x0 PUSH1 0x1 PUSH1 0x1 PUSH1 0xA0 SHL SUB AND DUP2 MSTORE PUSH1 0x20 ADD PUSH1 0x60 DUP2 MSTORE PUSH1 0x20 ADD PUSH1 0x60 DUP2 MSTORE PUSH1 0x20 ADD PUSH1 0x0 DUP2 MSTORE PUSH1 0x20 ADD PUSH1 0x0 DUP2 MSTORE PUSH1 0x20 ADD PUSH1 0x0 DUP2 MSTORE PUSH1 0x20 ADD PUSH1 0x60 DUP2 MSTORE PUSH1 0x20 ADD PUSH1 0x60 DUP2 MSTORE PUSH1 0x20 ADD PUSH1 0x60 DUP2 MSTORE POP SWAP1 JUMP JUMPDEST DUP2 MSTORE PUSH1 0x20 ADD SWAP1 PUSH1 0x1 SWAP1 SUB SWAP1 DUP2 PUSH2 0x628 JUMPI SWAP1 POP JUMPDEST POP SWAP1 POP PUSH1 0x0 JUMPDEST PUSH1 0x1 SLOAD DUP2 LT ISZERO PUSH2 0x992 JUMPI PUSH1 0x0 DUP2 DUP2 MSTORE PUSH1 0x20 DUP2 DUP2 MSTORE PUSH1 0x40 SWAP2 DUP3 SWAP1 KECCAK256 DUP3 MLOAD PUSH2 0x120 DUP2 ADD SWAP1 SWAP4 MSTORE DUP1 SLOAD PUSH1 0x1 PUSH1 0x1 PUSH1 0xA0 SHL SUB AND DUP4 MSTORE PUSH1 0x1 DUP2 ADD DUP1 SLOAD SWAP2 SWAP4 SWAP3 DUP5 SWAP3 SWAP1 DUP5 ADD SWAP2 SWAP1 PUSH2 0x6E3 SWAP1 PUSH2 0xDC0 JUMP JUMPDEST DUP1 PUSH1 0x1F ADD PUSH1 0x20 DUP1 SWAP2 DIV MUL PUSH1 0x20 ADD PUSH1 0x40 MLOAD SWAP1 DUP2 ADD PUSH1 0x40 MSTORE DUP1 SWAP3 SWAP2 SWAP1 DUP2 DUP2 MSTORE PUSH1 0x20 ADD DUP3 DUP1 SLOAD PUSH2 0x70F SWAP1 PUSH2 0xDC0 JUMP JUMPDEST DUP1 ISZERO PUSH2 0x75C JUMPI DUP1 PUSH1 0x1F LT PUSH2 0x731 JUMPI PUSH2 0x100 DUP1 DUP4 SLOAD DIV MUL DUP4 MSTORE SWAP2 PUSH1 0x20 ADD SWAP2 PUSH2 0x75C JUMP JUMPDEST DUP3 ADD SWAP2 SWAP1 PUSH1 0x0 MSTORE PUSH1 0x20 PUSH1 0x0 KECCAK256 SWAP1 JUMPDEST DUP2 SLOAD DUP2 MSTORE SWAP1 PUSH1 0x1 ADD SWAP1 PUSH1 0x20 ADD DUP1 DUP4 GT PUSH2 0x73F JUMPI DUP3 SWAP1 SUB PUSH1 0x1F AND DUP3 ADD SWAP2 JUMPDEST POP POP POP POP POP DUP2 MSTORE PUSH1 0x20 ADD PUSH1 0x2 DUP3 ADD DUP1 SLOAD PUSH2 0x775 SWAP1 PUSH2 0xDC0 JUMP JUMPDEST DUP1 PUSH1 0x1F ADD PUSH1 0x20 DUP1 SWAP2 DIV MUL PUSH1 0x20 ADD PUSH1 0x40 MLOAD SWAP1 DUP2 ADD PUSH1 0x40 MSTORE DUP1 SWAP3 SWAP2 SWAP1 DUP2 DUP2 MSTORE PUSH1 0x20 ADD DUP3 DUP1 SLOAD PUSH2 0x7A1 SWAP1 PUSH2 0xDC0 JUMP JUMPDEST DUP1 ISZERO PUSH2 0x7EE JUMPI DUP1 PUSH1 0x1F LT PUSH2 0x7C3 JUMPI PUSH2 0x100 DUP1 DUP4 SLOAD DIV MUL DUP4 MSTORE SWAP2 PUSH1 0x20 ADD SWAP2 PUSH2 0x7EE JUMP JUMPDEST DUP3 ADD SWAP2 SWAP1 PUSH1 0x0 MSTORE PUSH1 0x20 PUSH1 0x0 KECCAK256 SWAP1 JUMPDEST DUP2 SLOAD DUP2 MSTORE SWAP1 PUSH1 0x1 ADD SWAP1 PUSH1 0x20 ADD DUP1 DUP4 GT PUSH2 0x7D1 JUMPI DUP3 SWAP1 SUB PUSH1 0x1F AND DUP3 ADD SWAP2 JUMPDEST POP POP POP POP POP DUP2 MSTORE PUSH1 0x20 ADD PUSH1 0x3 DUP3 ADD SLOAD DUP2 MSTORE PUSH1 0x20 ADD PUSH1 0x4 DUP3 ADD SLOAD DUP2 MSTORE PUSH1 0x20 ADD PUSH1 0x5 DUP3 ADD SLOAD DUP2 MSTORE PUSH1 0x20 ADD PUSH1 0x6 DUP3 ADD DUP1 SLOAD PUSH2 0x825 SWAP1 PUSH2 0xDC0 JUMP JUMPDEST DUP1 PUSH1 0x1F ADD PUSH1 0x20 DUP1 SWAP2 DIV MUL PUSH1 0x20 ADD PUSH1 0x40 MLOAD SWAP1 DUP2 ADD PUSH1 0x40 MSTORE DUP1 SWAP3 SWAP2 SWAP1 DUP2 DUP2 MSTORE PUSH1 0x20 ADD DUP3 DUP1 SLOAD PUSH2 0x851 SWAP1 PUSH2 0xDC0 JUMP JUMPDEST DUP1 ISZERO PUSH2 0x89E JUMPI DUP1 PUSH1 0x1F LT PUSH2 0x873 JUMPI PUSH2 0x100 DUP1 DUP4 SLOAD DIV MUL DUP4 MSTORE SWAP2 PUSH1 0x20 ADD SWAP2 PUSH2 0x89E JUMP JUMPDEST DUP3 ADD SWAP2 SWAP1 PUSH1 0x0 MSTORE PUSH1 0x20 PUSH1 0x0 KECCAK256 SWAP1 JUMPDEST DUP2 SLOAD DUP2 MSTORE SWAP1 PUSH1 0x1 ADD SWAP1 PUSH1 0x20 ADD DUP1 DUP4 GT PUSH2 0x881 JUMPI DUP3 SWAP1 SUB PUSH1 0x1F AND DUP3 ADD SWAP2 JUMPDEST POP POP POP POP POP DUP2 MSTORE PUSH1 0x20 ADD PUSH1 0x7 DUP3 ADD DUP1 SLOAD DUP1 PUSH1 0x20 MUL PUSH1 0x20 ADD PUSH1 0x40 MLOAD SWAP1 DUP2 ADD PUSH1 0x40 MSTORE DUP1 SWAP3 SWAP2 SWAP1 DUP2 DUP2 MSTORE PUSH1 0x20 ADD DUP3 DUP1 SLOAD DUP1 ISZERO PUSH2 0x900 JUMPI PUSH1 0x20 MUL DUP3 ADD SWAP2 SWAP1 PUSH1 0x0 MSTORE PUSH1 0x20 PUSH1 0x0 KECCAK256 SWAP1 JUMPDEST DUP2 SLOAD PUSH1 0x1 PUSH1 0x1 PUSH1 0xA0 SHL SUB AND DUP2 MSTORE PUSH1 0x1 SWAP1 SWAP2 ADD SWAP1 PUSH1 0x20 ADD DUP1 DUP4 GT PUSH2 0x8E2 JUMPI JUMPDEST POP POP POP POP POP DUP2 MSTORE PUSH1 0x20 ADD PUSH1 0x8 DUP3 ADD DUP1 SLOAD DUP1 PUSH1 0x20 MUL PUSH1 0x20 ADD PUSH1 0x40 MLOAD SWAP1 DUP2 ADD PUSH1 0x40 MSTORE DUP1 SWAP3 SWAP2 SWAP1 DUP2 DUP2 MSTORE PUSH1 0x20 ADD DUP3 DUP1 SLOAD DUP1 ISZERO PUSH2 0x958 JUMPI PUSH1 0x20 MUL DUP3 ADD SWAP2 SWAP1 PUSH1 0x0 MSTORE PUSH1 0x20 PUSH1 0x0 KECCAK256 SWAP1 JUMPDEST DUP2 SLOAD DUP2 MSTORE PUSH1 0x20 ADD SWAP1 PUSH1 0x1 ADD SWAP1 DUP1 DUP4 GT PUSH2 0x944 JUMPI JUMPDEST POP POP POP POP POP DUP2 MSTORE POP POP DUP4 DUP4 DUP2 MLOAD DUP2 LT PUSH2 0x973 JUMPI PUSH2 0x973 PUSH2 0xF5E JUMP JUMPDEST PUSH1 0x20 MUL PUSH1 0x20 ADD ADD DUP2 SWAP1 MSTORE POP POP DUP1 DUP1 PUSH2 0x98A SWAP1 PUSH2 0xF32 JUMP JUMPDEST SWAP2 POP POP PUSH2 0x699 JUMP JUMPDEST POP SWAP2 SWAP1 POP JUMP JUMPDEST PUSH1 0x0 PUSH1 0x20 DUP3 DUP5 SUB SLT ISZERO PUSH2 0x9AA JUMPI PUSH1 0x0 DUP1 REVERT JUMPDEST POP CALLDATALOAD SWAP2 SWAP1 POP JUMP JUMPDEST PUSH1 0x40 DUP1 DUP3 MSTORE DUP4 MLOAD SWAP1 DUP3 ADD DUP2 SWAP1 MSTORE PUSH1 0x0 SWAP1 PUSH1 0x20 SWAP1 PUSH1 0x60 DUP5 ADD SWAP1 DUP3 DUP8 ADD DUP5 JUMPDEST DUP3 DUP2 LT ISZERO PUSH2 0x9F3 JUMPI DUP2 MLOAD PUSH1 0x1 PUSH1 0x1 PUSH1 0xA0 SHL SUB AND DUP5 MSTORE SWAP3 DUP5 ADD SWAP3 SWAP1 DUP5 ADD SWAP1 PUSH1 0x1 ADD PUSH2 0x9CE JUMP JUMPDEST POP POP POP DUP4 DUP2 SUB DUP3 DUP6 ADD MSTORE DUP5 MLOAD DUP1 DUP3 MSTORE DUP6 DUP4 ADD SWAP2 DUP4 ADD SWAP1 PUSH1 0x0 JUMPDEST DUP2 DUP2 LT ISZERO PUSH2 0xA28 JUMPI DUP4 MLOAD DUP4 MSTORE SWAP3 DUP5 ADD SWAP3 SWAP2 DUP5 ADD SWAP2 PUSH1 0x1 ADD PUSH2 0xA0C JUMP JUMPDEST POP SWAP1 SWAP8 SWAP7 POP POP POP POP POP POP POP JUMP JUMPDEST PUSH1 0x0 DUP2 MLOAD DUP1 DUP5 MSTORE PUSH1 0x0 JUMPDEST DUP2 DUP2 LT ISZERO PUSH2 0xA5B JUMPI PUSH1 0x20 DUP2 DUP6 ADD DUP2 ADD MLOAD DUP7 DUP4 ADD DUP3 ADD MSTORE ADD PUSH2 0xA3F JUMP JUMPDEST POP PUSH1 0x0 PUSH1 0x20 DUP3 DUP7 ADD ADD MSTORE PUSH1 0x20 PUSH1 0x1F NOT PUSH1 0x1F DUP4 ADD AND DUP6 ADD ADD SWAP2 POP POP SWAP3 SWAP2 POP POP JUMP JUMPDEST PUSH1 0x1 PUSH1 0x1 PUSH1 0xA0 SHL SUB DUP9 AND DUP2 MSTORE PUSH1 0xE0 PUSH1 0x20 DUP3 ADD MSTORE PUSH1 0x0 PUSH2 0xA9D PUSH1 0xE0 DUP4 ADD DUP10 PUSH2 0xA35 JUMP JUMPDEST DUP3 DUP2 SUB PUSH1 0x40 DUP5 ADD MSTORE PUSH2 0xAAF DUP2 DUP10 PUSH2 0xA35 JUMP JUMPDEST SWAP1 POP DUP7 PUSH1 0x60 DUP5 ADD MSTORE DUP6 PUSH1 0x80 DUP5 ADD MSTORE DUP5 PUSH1 0xA0 DUP5 ADD MSTORE DUP3 DUP2 SUB PUSH1 0xC0 DUP5 ADD MSTORE PUSH2 0xAD5 DUP2 DUP6 PUSH2 0xA35 JUMP JUMPDEST SWAP11 SWAP10 POP POP POP POP POP POP POP POP POP POP JUMP JUMPDEST PUSH4 0x4E487B71 PUSH1 0xE0 SHL PUSH1 0x0 MSTORE PUSH1 0x41 PUSH1 0x4 MSTORE PUSH1 0x24 PUSH1 0x0 REVERT JUMPDEST PUSH1 0x0 DUP3 PUSH1 0x1F DUP4 ADD SLT PUSH2 0xB0A JUMPI PUSH1 0x0 DUP1 REVERT JUMPDEST DUP2 CALLDATALOAD PUSH8 0xFFFFFFFFFFFFFFFF DUP1 DUP3 GT ISZERO PUSH2 0xB25 JUMPI PUSH2 0xB25 PUSH2 0xAE3 JUMP JUMPDEST PUSH1 0x40 MLOAD PUSH1 0x1F DUP4 ADD PUSH1 0x1F NOT SWAP1 DUP2 AND PUSH1 0x3F ADD AND DUP2 ADD SWAP1 DUP3 DUP3 GT DUP2 DUP4 LT OR ISZERO PUSH2 0xB4D JUMPI PUSH2 0xB4D PUSH2 0xAE3 JUMP JUMPDEST DUP2 PUSH1 0x40 MSTORE DUP4 DUP2 MSTORE DUP7 PUSH1 0x20 DUP6 DUP9 ADD ADD GT ISZERO PUSH2 0xB66 JUMPI PUSH1 0x0 DUP1 REVERT JUMPDEST DUP4 PUSH1 0x20 DUP8 ADD PUSH1 0x20 DUP4 ADD CALLDATACOPY PUSH1 0x0 PUSH1 0x20 DUP6 DUP4 ADD ADD MSTORE DUP1 SWAP5 POP POP POP POP POP SWAP3 SWAP2 POP POP JUMP JUMPDEST PUSH1 0x0 DUP1 PUSH1 0x0 DUP1 PUSH1 0x0 DUP1 PUSH1 0xC0 DUP8 DUP10 SUB SLT ISZERO PUSH2 0xB9F JUMPI PUSH1 0x0 DUP1 REVERT JUMPDEST DUP7 CALLDATALOAD PUSH1 0x1 PUSH1 0x1 PUSH1 0xA0 SHL SUB DUP2 AND DUP2 EQ PUSH2 0xBB6 JUMPI PUSH1 0x0 DUP1 REVERT JUMPDEST SWAP6 POP PUSH1 0x20 DUP8 ADD CALLDATALOAD PUSH8 0xFFFFFFFFFFFFFFFF DUP1 DUP3 GT ISZERO PUSH2 0xBD3 JUMPI PUSH1 0x0 DUP1 REVERT JUMPDEST PUSH2 0xBDF DUP11 DUP4 DUP12 ADD PUSH2 0xAF9 JUMP JUMPDEST SWAP7 POP PUSH1 0x40 DUP10 ADD CALLDATALOAD SWAP2 POP DUP1 DUP3 GT ISZERO PUSH2 0xBF5 JUMPI PUSH1 0x0 DUP1 REVERT JUMPDEST PUSH2 0xC01 DUP11 DUP4 DUP12 ADD PUSH2 0xAF9 JUMP JUMPDEST SWAP6 POP PUSH1 0x60 DUP10 ADD CALLDATALOAD SWAP5 POP PUSH1 0x80 DUP10 ADD CALLDATALOAD SWAP4 POP PUSH1 0xA0 DUP10 ADD CALLDATALOAD SWAP2 POP DUP1 DUP3 GT ISZERO PUSH2 0xC25 JUMPI PUSH1 0x0 DUP1 REVERT JUMPDEST POP PUSH2 0xC32 DUP10 DUP3 DUP11 ADD PUSH2 0xAF9 JUMP JUMPDEST SWAP2 POP POP SWAP3 SWAP6 POP SWAP3 SWAP6 POP SWAP3 SWAP6 JUMP JUMPDEST PUSH1 0x0 DUP2 MLOAD DUP1 DUP5 MSTORE PUSH1 0x20 DUP1 DUP6 ADD SWAP5 POP DUP1 DUP5 ADD PUSH1 0x0 JUMPDEST DUP4 DUP2 LT ISZERO PUSH2 0xC78 JUMPI DUP2 MLOAD PUSH1 0x1 PUSH1 0x1 PUSH1 0xA0 SHL SUB AND DUP8 MSTORE SWAP6 DUP3 ADD SWAP6 SWAP1 DUP3 ADD SWAP1 PUSH1 0x1 ADD PUSH2 0xC53 JUMP JUMPDEST POP SWAP5 SWAP6 SWAP5 POP POP POP POP POP JUMP JUMPDEST PUSH1 0x0 DUP2 MLOAD DUP1 DUP5 MSTORE PUSH1 0x20 DUP1 DUP6 ADD SWAP5 POP DUP1 DUP5 ADD PUSH1 0x0 JUMPDEST DUP4 DUP2 LT ISZERO PUSH2 0xC78 JUMPI DUP2 MLOAD DUP8 MSTORE SWAP6 DUP3 ADD SWAP6 SWAP1 DUP3 ADD SWAP1 PUSH1 0x1 ADD PUSH2 0xC97 JUMP JUMPDEST PUSH1 0x0 PUSH1 0x20 DUP1 DUP4 ADD DUP2 DUP5 MSTORE DUP1 DUP6 MLOAD DUP1 DUP4 MSTORE PUSH1 0x40 SWAP3 POP DUP3 DUP7 ADD SWAP2 POP DUP3 DUP2 PUSH1 0x5 SHL DUP8 ADD ADD DUP5 DUP9 ADD PUSH1 0x0 JUMPDEST DUP4 DUP2 LT ISZERO PUSH2 0xDB2 JUMPI DUP9 DUP4 SUB PUSH1 0x3F NOT ADD DUP6 MSTORE DUP2 MLOAD DUP1 MLOAD PUSH1 0x1 PUSH1 0x1 PUSH1 0xA0 SHL SUB AND DUP5 MSTORE PUSH2 0x120 DUP9 DUP3 ADD MLOAD DUP2 DUP11 DUP8 ADD MSTORE PUSH2 0xD12 DUP3 DUP8 ADD DUP3 PUSH2 0xA35 JUMP JUMPDEST SWAP2 POP POP DUP8 DUP3 ADD MLOAD DUP6 DUP3 SUB DUP10 DUP8 ADD MSTORE PUSH2 0xD2A DUP3 DUP3 PUSH2 0xA35 JUMP JUMPDEST PUSH1 0x60 DUP5 DUP2 ADD MLOAD SWAP1 DUP9 ADD MSTORE PUSH1 0x80 DUP1 DUP6 ADD MLOAD SWAP1 DUP9 ADD MSTORE PUSH1 0xA0 DUP1 DUP6 ADD MLOAD SWAP1 DUP9 ADD MSTORE PUSH1 0xC0 DUP1 DUP6 ADD MLOAD DUP9 DUP4 SUB DUP3 DUP11 ADD MSTORE SWAP2 SWAP4 POP SWAP2 POP PUSH2 0xD64 DUP4 DUP3 PUSH2 0xA35 JUMP JUMPDEST SWAP3 POP POP POP PUSH1 0xE0 DUP1 DUP4 ADD MLOAD DUP7 DUP4 SUB DUP3 DUP9 ADD MSTORE PUSH2 0xD7F DUP4 DUP3 PUSH2 0xC3F JUMP JUMPDEST SWAP3 POP POP POP PUSH2 0x100 DUP1 DUP4 ADD MLOAD SWAP3 POP DUP6 DUP3 SUB DUP2 DUP8 ADD MSTORE POP PUSH2 0xD9E DUP2 DUP4 PUSH2 0xC83 JUMP JUMPDEST SWAP7 DUP10 ADD SWAP7 SWAP5 POP POP POP SWAP1 DUP7 ADD SWAP1 PUSH1 0x1 ADD PUSH2 0xCDA JUMP JUMPDEST POP SWAP1 SWAP9 SWAP8 POP POP POP POP POP POP POP POP JUMP JUMPDEST PUSH1 0x1 DUP2 DUP2 SHR SWAP1 DUP3 AND DUP1 PUSH2 0xDD4 JUMPI PUSH1 0x7F DUP3 AND SWAP2 POP JUMPDEST PUSH1 0x20 DUP3 LT DUP2 SUB PUSH2 0x992 JUMPI PUSH4 0x4E487B71 PUSH1 0xE0 SHL PUSH1 0x0 MSTORE PUSH1 0x22 PUSH1 0x4 MSTORE PUSH1 0x24 PUSH1 0x0 REVERT JUMPDEST PUSH4 0x4E487B71 PUSH1 0xE0 SHL PUSH1 0x0 MSTORE PUSH1 0x11 PUSH1 0x4 MSTORE PUSH1 0x24 PUSH1 0x0 REVERT JUMPDEST DUP1 DUP3 ADD DUP1 DUP3 GT ISZERO PUSH2 0xE1D JUMPI PUSH2 0xE1D PUSH2 0xDF4 JUMP JUMPDEST SWAP3 SWAP2 POP POP JUMP JUMPDEST PUSH1 0x1F DUP3 GT ISZERO PUSH2 0xE6D JUMPI PUSH1 0x0 DUP2 DUP2 MSTORE PUSH1 0x20 DUP2 KECCAK256 PUSH1 0x1F DUP6 ADD PUSH1 0x5 SHR DUP2 ADD PUSH1 0x20 DUP7 LT ISZERO PUSH2 0xE4A JUMPI POP DUP1 JUMPDEST PUSH1 0x1F DUP6 ADD PUSH1 0x5 SHR DUP3 ADD SWAP2 POP JUMPDEST DUP2 DUP2 LT ISZERO PUSH2 0xE69 JUMPI DUP3 DUP2 SSTORE PUSH1 0x1 ADD PUSH2 0xE56 JUMP JUMPDEST POP POP POP JUMPDEST POP POP POP JUMP JUMPDEST DUP2 MLOAD PUSH8 0xFFFFFFFFFFFFFFFF DUP2 GT ISZERO PUSH2 0xE8C JUMPI PUSH2 0xE8C PUSH2 0xAE3 JUMP JUMPDEST PUSH2 0xEA0 DUP2 PUSH2 0xE9A DUP5 SLOAD PUSH2 0xDC0 JUMP JUMPDEST DUP5 PUSH2 0xE23 JUMP JUMPDEST PUSH1 0x20 DUP1 PUSH1 0x1F DUP4 GT PUSH1 0x1 DUP2 EQ PUSH2 0xED5 JUMPI PUSH1 0x0 DUP5 ISZERO PUSH2 0xEBD JUMPI POP DUP6 DUP4 ADD MLOAD JUMPDEST PUSH1 0x0 NOT PUSH1 0x3 DUP7 SWAP1 SHL SHR NOT AND PUSH1 0x1 DUP6 SWAP1 SHL OR DUP6 SSTORE PUSH2 0xE69 JUMP JUMPDEST PUSH1 0x0 DUP6 DUP2 MSTORE PUSH1 0x20 DUP2 KECCAK256 PUSH1 0x1F NOT DUP7 AND SWAP2 JUMPDEST DUP3 DUP2 LT ISZERO PUSH2 0xF04 JUMPI DUP9 DUP7 ADD MLOAD DUP3 SSTORE SWAP5 DUP5 ADD SWAP5 PUSH1 0x1 SWAP1 SWAP2 ADD SWAP1 DUP5 ADD PUSH2 0xEE5 JUMP JUMPDEST POP DUP6 DUP3 LT ISZERO PUSH2 0xF22 JUMPI DUP8 DUP6 ADD MLOAD PUSH1 0x0 NOT PUSH1 0x3 DUP9 SWAP1 SHL PUSH1 0xF8 AND SHR NOT AND DUP2 SSTORE JUMPDEST POP POP POP POP POP PUSH1 0x1 SWAP1 DUP2 SHL ADD SWAP1 SSTORE POP JUMP JUMPDEST PUSH1 0x0 PUSH1 0x1 DUP3 ADD PUSH2 0xF44 JUMPI PUSH2 0xF44 PUSH2 0xDF4 JUMP JUMPDEST POP PUSH1 0x1 ADD SWAP1 JUMP JUMPDEST DUP2 DUP2 SUB DUP2 DUP2 GT ISZERO PUSH2 0xE1D JUMPI PUSH2 0xE1D PUSH2 0xDF4 JUMP JUMPDEST PUSH4 0x4E487B71 PUSH1 0xE0 SHL PUSH1 0x0 MSTORE PUSH1 0x32 PUSH1 0x4 MSTORE PUSH1 0x24 PUSH1 0x0 REVERT INVALID LOG2 PUSH5 0x6970667358 0x22 SLT KECCAK256 0xA7 0xB0 SWAP5 RETURNDATASIZE PUSH6 0xDC1F82FE1F7D PUSH1 0xD7 0xDF 0x2D DUP14 GT 0xDE BLOCKHASH PUSH22 0x4095769ED71673BA056763F164736F6C634300081100 CALLER "
    },
    "gasEstimates": {
      "creation": {
        "codeDepositCost": "802000",
        "executionCost": "5844",
        "totalCost": "807844"
      },
      "external": {
        "campaigns(uint256)": "infinite",
        "createCampaign(address,string,string,uint256,uint256,string)": "infinite",
        "donateCampaign(uint256)": "infinite",
        "getCampaigns()": "infinite",
        "getDonators(uint256)": "infinite",
        "numberOfCampaigns()": "2285"
      }
    },
    "methodIdentifiers": {
      "campaigns(uint256)": "141961bc",
      "createCampaign(address,string,string,uint256,uint256,string)": "9943e3a1",
      "donateCampaign(uint256)": "8ffff8b0",
      "getCampaigns()": "a6b03633",
      "getDonators(uint256)": "0fa91fa9",
      "numberOfCampaigns()": "07ca140d"
    }
  },
  "storageLayout": {
    "storage": [
      {
        "astId": 27,
        "contract": "CrowdFunding.sol:CrowdFunding",
        "label": "campaigns",
        "offset": 0,
        "slot": "0",
        "type": "t_mapping(t_uint256,t_struct(Campaign)22_storage)"
      },
      {
        "astId": 30,
        "contract": "CrowdFunding.sol:CrowdFunding",
        "label": "numberOfCampaigns",
        "offset": 0,
        "slot": "1",
        "type": "t_uint256"
      }
    ],
    "types": {
      "t_address": {
        "encoding": "inplace",
        "label": "address",
        "numberOfBytes": "20"
      },
      "t_array(t_address)dyn_storage": {
        "base": "t_address",
        "encoding": "dynamic_array",
        "label": "address[]",
        "numberOfBytes": "32"
      },
      "t_array(t_uint256)dyn_storage": {
        "base": "t_uint256",
        "encoding": "dynamic_array",
        "label": "uint256[]",
        "numberOfBytes": "32"
      },
      "t_mapping(t_uint256,t_struct(Campaign)22_storage)": {
        "encoding": "mapping",
        "key": "t_uint256",
        "label": "mapping(uint256 => struct CrowdFunding.Campaign)",
        "numberOfBytes": "32",
        "value": "t_struct(Campaign)22_storage"
      },
      "t_string_storage": {
        "encoding": "bytes",
        "label": "string",
        "numberOfBytes": "32"
      },
      "t_struct(Campaign)22_storage": {
        "encoding": "inplace",
        "label": "struct CrowdFunding.Campaign",
        "members": [
          {
            "astId": 3,
            "contract": "CrowdFunding.sol:CrowdFunding",
            "label": "owner",
            "offset": 0,
            "slot": "0",
            "type": "t_address"
          },
          {
            "astId": 5,
            "contract": "CrowdFunding.sol:CrowdFunding",
            "label": "title",
            "offset": 0,
            "slot": "1",
            "type": "t_string_storage"
          },
          {
            "astId": 7,
            "contract": "CrowdFunding.sol:CrowdFunding",
            "label": "description",
            "offset": 0,
            "slot": "2",
            "type": "t_string_storage"
          },
          {
            "astId": 9,
            "contract": "CrowdFunding.sol:CrowdFunding",
            "label": "target",
            "offset": 0,
            "slot": "3",
            "type": "t_uint256"
          },
          {
            "astId": 11,
            "contract": "CrowdFunding.sol:CrowdFunding",
            "label": "deadline",
            "offset": 0,
            "slot": "4",
            "type": "t_uint256"
          },
          {
            "astId": 13,
            "contract": "CrowdFunding.sol:CrowdFunding",
            "label": "amountCollected",
            "offset": 0,
            "slot": "5",
            "type": "t_uint256"
          },
          {
            "astId": 15,
            "contract": "CrowdFunding.sol:CrowdFunding",
            "label": "image",
            "offset": 0,
            "slot": "6",
            "type": "t_string_storage"
          },
          {
            "astId": 18,
            "contract": "CrowdFunding.sol:CrowdFunding",
            "label": "donators",
            "offset": 0,
            "slot": "7",
            "type": "t_array(t_address)dyn_storage"
          },
          {
            "astId": 21,
            "contract": "CrowdFunding.sol:CrowdFunding",
            "label": "donations",
            "offset": 0,
            "slot": "8",
            "type": "t_array(t_uint256)dyn_storage"
          }
        ],
        "numberOfBytes": "288"
      },
      "t_uint256": {
        "encoding": "inplace",
        "label": "uint256",
        "numberOfBytes": "32"
      }
    }
  },
  "userdoc": {
    "kind": "user",
    "methods": {},
    "version": 1
  }
}